{
    "_format": "hh-sol-artifact-1",
    "contractName": "LesdarusToken",
    "sourceName": "contracts/LesdarusToken.sol",
    "abi": [
        {
            "inputs": [
                {
                    "internalType": "uint256",
                    "name": "initialSupply",
                    "type": "uint256"
                }
            ],
            "stateMutability": "nonpayable",
            "type": "constructor"
        },
        {
            "inputs": [
                {
                    "internalType": "address",
                    "name": "spender",
                    "type": "address"
                },
                {
                    "internalType": "uint256",
                    "name": "allowance",
                    "type": "uint256"
                },
                {
                    "internalType": "uint256",
                    "name": "needed",
                    "type": "uint256"
                }
            ],
            "name": "ERC20InsufficientAllowance",
            "type": "error"
        },
        {
            "inputs": [
                {
                    "internalType": "address",
                    "name": "sender",
                    "type": "address"
                },
                {
                    "internalType": "uint256",
                    "name": "balance",
                    "type": "uint256"
                },
                {
                    "internalType": "uint256",
                    "name": "needed",
                    "type": "uint256"
                }
            ],
            "name": "ERC20InsufficientBalance",
            "type": "error"
        },
        {
            "inputs": [
                {
                    "internalType": "address",
                    "name": "approver",
                    "type": "address"
                }
            ],
            "name": "ERC20InvalidApprover",
            "type": "error"
        },
        {
            "inputs": [
                {
                    "internalType": "address",
                    "name": "receiver",
                    "type": "address"
                }
            ],
            "name": "ERC20InvalidReceiver",
            "type": "error"
        },
        {
            "inputs": [
                {
                    "internalType": "address",
                    "name": "sender",
                    "type": "address"
                }
            ],
            "name": "ERC20InvalidSender",
            "type": "error"
        },
        {
            "inputs": [
                {
                    "internalType": "address",
                    "name": "spender",
                    "type": "address"
                }
            ],
            "name": "ERC20InvalidSpender",
            "type": "error"
        },
        {
            "anonymous": false,
            "inputs": [
                {
                    "indexed": true,
                    "internalType": "address",
                    "name": "owner",
                    "type": "address"
                },
                {
                    "indexed": true,
                    "internalType": "address",
                    "name": "spender",
                    "type": "address"
                },
                {
                    "indexed": false,
                    "internalType": "uint256",
                    "name": "value",
                    "type": "uint256"
                }
            ],
            "name": "Approval",
            "type": "event"
        },
        {
            "anonymous": false,
            "inputs": [
                {
                    "indexed": true,
                    "internalType": "address",
                    "name": "from",
                    "type": "address"
                },
                {
                    "indexed": true,
                    "internalType": "address",
                    "name": "to",
                    "type": "address"
                },
                {
                    "indexed": false,
                    "internalType": "uint256",
                    "name": "value",
                    "type": "uint256"
                }
            ],
            "name": "Transfer",
            "type": "event"
        },
        {
            "inputs": [
                {
                    "internalType": "address",
                    "name": "owner",
                    "type": "address"
                },
                {
                    "internalType": "address",
                    "name": "spender",
                    "type": "address"
                }
            ],
            "name": "allowance",
            "outputs": [
                {
                    "internalType": "uint256",
                    "name": "",
                    "type": "uint256"
                }
            ],
            "stateMutability": "view",
            "type": "function"
        },
        {
            "inputs": [
                {
                    "internalType": "address",
                    "name": "spender",
                    "type": "address"
                },
                {
                    "internalType": "uint256",
                    "name": "value",
                    "type": "uint256"
                }
            ],
            "name": "approve",
            "outputs": [
                {
                    "internalType": "bool",
                    "name": "",
                    "type": "bool"
                }
            ],
            "stateMutability": "nonpayable",
            "type": "function"
        },
        {
            "inputs": [
                {
                    "internalType": "address",
                    "name": "account",
                    "type": "address"
                }
            ],
            "name": "balanceOf",
            "outputs": [
                {
                    "internalType": "uint256",
                    "name": "",
                    "type": "uint256"
                }
            ],
            "stateMutability": "view",
            "type": "function"
        },
        {
            "inputs": [],
            "name": "decimals",
            "outputs": [
                {
                    "internalType": "uint8",
                    "name": "",
                    "type": "uint8"
                }
            ],
            "stateMutability": "view",
            "type": "function"
        },
        {
            "inputs": [
                {
                    "internalType": "address",
                    "name": "userAddress",
                    "type": "address"
                },
                {
                    "internalType": "uint256",
                    "name": "amount",
                    "type": "uint256"
                },
                {
                    "internalType": "bytes32",
                    "name": "r",
                    "type": "bytes32"
                },
                {
                    "internalType": "bytes32",
                    "name": "s",
                    "type": "bytes32"
                },
                {
                    "internalType": "uint8",
                    "name": "v",
                    "type": "uint8"
                }
            ],
            "name": "executeMetaTransaction",
            "outputs": [
                {
                    "internalType": "bool",
                    "name": "",
                    "type": "bool"
                }
            ],
            "stateMutability": "nonpayable",
            "type": "function"
        },
        {
            "inputs": [
                {
                    "internalType": "address",
                    "name": "userAddress",
                    "type": "address"
                }
            ],
            "name": "getNonce",
            "outputs": [
                {
                    "internalType": "uint256",
                    "name": "",
                    "type": "uint256"
                }
            ],
            "stateMutability": "view",
            "type": "function"
        },
        {
            "inputs": [],
            "name": "name",
            "outputs": [
                {
                    "internalType": "string",
                    "name": "",
                    "type": "string"
                }
            ],
            "stateMutability": "view",
            "type": "function"
        },
        {
            "inputs": [
                {
                    "internalType": "uint256",
                    "name": "amount",
                    "type": "uint256"
                }
            ],
            "name": "receiveTokens",
            "outputs": [
                {
                    "internalType": "bool",
                    "name": "",
                    "type": "bool"
                }
            ],
            "stateMutability": "nonpayable",
            "type": "function"
        },
        {
            "inputs": [
                {
                    "internalType": "address",
                    "name": "recipient",
                    "type": "address"
                },
                {
                    "internalType": "uint256",
                    "name": "amount",
                    "type": "uint256"
                }
            ],
            "name": "sendTokens",
            "outputs": [
                {
                    "internalType": "bool",
                    "name": "",
                    "type": "bool"
                }
            ],
            "stateMutability": "nonpayable",
            "type": "function"
        },
        {
            "inputs": [
                {
                    "internalType": "address",
                    "name": "relayer",
                    "type": "address"
                }
            ],
            "name": "setRelayer",
            "outputs": [],
            "stateMutability": "nonpayable",
            "type": "function"
        },
        {
            "inputs": [],
            "name": "symbol",
            "outputs": [
                {
                    "internalType": "string",
                    "name": "",
                    "type": "string"
                }
            ],
            "stateMutability": "view",
            "type": "function"
        },
        {
            "inputs": [],
            "name": "totalSupply",
            "outputs": [
                {
                    "internalType": "uint256",
                    "name": "",
                    "type": "uint256"
                }
            ],
            "stateMutability": "view",
            "type": "function"
        },
        {
            "inputs": [
                {
                    "internalType": "address",
                    "name": "to",
                    "type": "address"
                },
                {
                    "internalType": "uint256",
                    "name": "value",
                    "type": "uint256"
                }
            ],
            "name": "transfer",
            "outputs": [
                {
                    "internalType": "bool",
                    "name": "",
                    "type": "bool"
                }
            ],
            "stateMutability": "nonpayable",
            "type": "function"
        },
        {
            "inputs": [
                {
                    "internalType": "address",
                    "name": "from",
                    "type": "address"
                },
                {
                    "internalType": "address",
                    "name": "to",
                    "type": "address"
                },
                {
                    "internalType": "uint256",
                    "name": "value",
                    "type": "uint256"
                }
            ],
            "name": "transferFrom",
            "outputs": [
                {
                    "internalType": "bool",
                    "name": "",
                    "type": "bool"
                }
            ],
            "stateMutability": "nonpayable",
            "type": "function"
        }
    ],
    "bytecode": "0x60806040523480156200001157600080fd5b506040516200239f3803806200239f833981810160405281019062000037919062000461565b6040518060400160405280600881526020017f4c657364617275730000000000000000000000000000000000000000000000008152506040518060400160405280600381526020017f4c445300000000000000000000000000000000000000000000000000000000008152508160039081620000b4919062000703565b508060049081620000c6919062000703565b50505033600560006101000a81548173ffffffffffffffffffffffffffffffffffffffff021916908373ffffffffffffffffffffffffffffffffffffffff16021790555033600660006101000a81548173ffffffffffffffffffffffffffffffffffffffff021916908373ffffffffffffffffffffffffffffffffffffffff1602179055506200015d30826200016460201b60201c565b5062000921565b600073ffffffffffffffffffffffffffffffffffffffff168273ffffffffffffffffffffffffffffffffffffffff1603620001d95760006040517fec442f05000000000000000000000000000000000000000000000000000000008152600401620001d091906200082f565b60405180910390fd5b620001ed60008383620001f160201b60201c565b5050565b600073ffffffffffffffffffffffffffffffffffffffff168373ffffffffffffffffffffffffffffffffffffffff1603620002475780600260008282546200023a91906200087b565b925050819055506200031d565b60008060008573ffffffffffffffffffffffffffffffffffffffff1673ffffffffffffffffffffffffffffffffffffffff16815260200190815260200160002054905081811015620002d6578381836040517fe450d38c000000000000000000000000000000000000000000000000000000008152600401620002cd93929190620008c7565b60405180910390fd5b8181036000808673ffffffffffffffffffffffffffffffffffffffff1673ffffffffffffffffffffffffffffffffffffffff16815260200190815260200160002081905550505b600073ffffffffffffffffffffffffffffffffffffffff168273ffffffffffffffffffffffffffffffffffffffff1603620003685780600260008282540392505081905550620003b5565b806000808473ffffffffffffffffffffffffffffffffffffffff1673ffffffffffffffffffffffffffffffffffffffff168152602001908152602001600020600082825401925050819055505b8173ffffffffffffffffffffffffffffffffffffffff168373ffffffffffffffffffffffffffffffffffffffff167fddf252ad1be2c89b69c2b068fc378daa952ba7f163c4a11628f55a4df523b3ef8360405162000414919062000904565b60405180910390a3505050565b600080fd5b6000819050919050565b6200043b8162000426565b81146200044757600080fd5b50565b6000815190506200045b8162000430565b92915050565b6000602082840312156200047a576200047962000421565b5b60006200048a848285016200044a565b91505092915050565b600081519050919050565b7f4e487b7100000000000000000000000000000000000000000000000000000000600052604160045260246000fd5b7f4e487b7100000000000000000000000000000000000000000000000000000000600052602260045260246000fd5b600060028204905060018216806200051557607f821691505b6020821081036200052b576200052a620004cd565b5b50919050565b60008190508160005260206000209050919050565b60006020601f8301049050919050565b600082821b905092915050565b600060088302620005957fffffffffffffffffffffffffffffffffffffffffffffffffffffffffffffffff8262000556565b620005a1868362000556565b95508019841693508086168417925050509392505050565b6000819050919050565b6000620005e4620005de620005d88462000426565b620005b9565b62000426565b9050919050565b6000819050919050565b6200060083620005c3565b620006186200060f82620005eb565b84845462000563565b825550505050565b600090565b6200062f62000620565b6200063c818484620005f5565b505050565b5b8181101562000664576200065860008262000625565b60018101905062000642565b5050565b601f821115620006b3576200067d8162000531565b620006888462000546565b8101602085101562000698578190505b620006b0620006a78562000546565b83018262000641565b50505b505050565b600082821c905092915050565b6000620006d860001984600802620006b8565b1980831691505092915050565b6000620006f38383620006c5565b9150826002028217905092915050565b6200070e8262000493565b67ffffffffffffffff8111156200072a57620007296200049e565b5b620007368254620004fc565b6200074382828562000668565b600060209050601f8311600181146200077b576000841562000766578287015190505b620007728582620006e5565b865550620007e2565b601f1984166200078b8662000531565b60005b82811015620007b5578489015182556001820191506020850194506020810190506200078e565b86831015620007d55784890151620007d1601f891682620006c5565b8355505b6001600288020188555050505b505050505050565b600073ffffffffffffffffffffffffffffffffffffffff82169050919050565b60006200081782620007ea565b9050919050565b62000829816200080a565b82525050565b60006020820190506200084660008301846200081e565b92915050565b7f4e487b7100000000000000000000000000000000000000000000000000000000600052601160045260246000fd5b6000620008888262000426565b9150620008958362000426565b9250828201905080821115620008b057620008af6200084c565b5b92915050565b620008c18162000426565b82525050565b6000606082019050620008de60008301866200081e565b620008ed6020830185620008b6565b620008fc6040830184620008b6565b949350505050565b60006020820190506200091b6000830184620008b6565b92915050565b611a6e80620009316000396000f3fe608060405234801561001057600080fd5b50600436106100ea5760003560e01c80636548e9bc1161008c57806395d89b411161006657806395d89b4114610285578063a9059cbb146102a3578063dd62ed3e146102d3578063f633b1a814610303576100ea565b80636548e9bc1461020957806370a0823114610225578063743e0c9b14610255576100ea565b806318160ddd116100c857806318160ddd1461016d57806323b872dd1461018b5780632d0335ab146101bb578063313ce567146101eb576100ea565b806305ab421d146100ef57806306fdde031461011f578063095ea7b31461013d575b600080fd5b6101096004803603810190610104919061109b565b610333565b60405161011691906110f6565b60405180910390f35b610127610422565b60405161013491906111a1565b60405180910390f35b6101576004803603810190610152919061109b565b6104b4565b60405161016491906110f6565b60405180910390f35b6101756104d7565b60405161018291906111d2565b60405180910390f35b6101a560048036038101906101a091906111ed565b6104e1565b6040516101b291906110f6565b60405180910390f35b6101d560048036038101906101d09190611240565b610510565b6040516101e291906111d2565b60405180910390f35b6101f3610559565b6040516102009190611289565b60405180910390f35b610223600480360381019061021e9190611240565b610562565b005b61023f600480360381019061023a9190611240565b610636565b60405161024c91906111d2565b60405180910390f35b61026f600480360381019061026a91906112a4565b61067e565b60405161027c91906110f6565b60405180910390f35b61028d6106d4565b60405161029a91906111a1565b60405180910390f35b6102bd60048036038101906102b8919061109b565b610766565b6040516102ca91906110f6565b60405180910390f35b6102ed60048036038101906102e891906112d1565b610789565b6040516102fa91906111d2565b60405180910390f35b61031d60048036038101906103189190611373565b610810565b60405161032a91906110f6565b60405180910390f35b6000600560009054906101000a900473ffffffffffffffffffffffffffffffffffffffff1673ffffffffffffffffffffffffffffffffffffffff163373ffffffffffffffffffffffffffffffffffffffff16146103c5576040517f08c379a00000000000000000000000000000000000000000000000000000000081526004016103bc90611460565b60405180910390fd5b816103cf30610636565b1015610410576040517f08c379a0000000000000000000000000000000000000000000000000000000008152600401610407906114f2565b60405180910390fd5b61041a8383610766565b905092915050565b60606003805461043190611541565b80601f016020809104026020016040519081016040528092919081815260200182805461045d90611541565b80156104aa5780601f1061047f576101008083540402835291602001916104aa565b820191906000526020600020905b81548152906001019060200180831161048d57829003601f168201915b5050505050905090565b6000806104bf610a64565b90506104cc818585610a6c565b600191505092915050565b6000600254905090565b6000806104ec610a64565b90506104f9858285610a7e565b610504858585610b12565b60019150509392505050565b6000600760008373ffffffffffffffffffffffffffffffffffffffff1673ffffffffffffffffffffffffffffffffffffffff168152602001908152602001600020549050919050565b60006012905090565b600560009054906101000a900473ffffffffffffffffffffffffffffffffffffffff1673ffffffffffffffffffffffffffffffffffffffff163373ffffffffffffffffffffffffffffffffffffffff16146105f2576040517f08c379a00000000000000000000000000000000000000000000000000000000081526004016105e9906115e4565b60405180910390fd5b80600660006101000a81548173ffffffffffffffffffffffffffffffffffffffff021916908373ffffffffffffffffffffffffffffffffffffffff16021790555050565b60008060008373ffffffffffffffffffffffffffffffffffffffff1673ffffffffffffffffffffffffffffffffffffffff168152602001908152602001600020549050919050565b60008082116106c2576040517f08c379a00000000000000000000000000000000000000000000000000000000081526004016106b990611676565b60405180910390fd5b6106cd3330846104e1565b9050919050565b6060600480546106e390611541565b80601f016020809104026020016040519081016040528092919081815260200182805461070f90611541565b801561075c5780601f106107315761010080835404028352916020019161075c565b820191906000526020600020905b81548152906001019060200180831161073f57829003601f168201915b5050505050905090565b600080610771610a64565b905061077e818585610b12565b600191505092915050565b6000600160008473ffffffffffffffffffffffffffffffffffffffff1673ffffffffffffffffffffffffffffffffffffffff16815260200190815260200160002060008373ffffffffffffffffffffffffffffffffffffffff1673ffffffffffffffffffffffffffffffffffffffff16815260200190815260200160002054905092915050565b6000600660009054906101000a900473ffffffffffffffffffffffffffffffffffffffff1673ffffffffffffffffffffffffffffffffffffffff163373ffffffffffffffffffffffffffffffffffffffff16146108a2576040517f08c379a000000000000000000000000000000000000000000000000000000000815260040161089990611708565b60405180910390fd5b60008686600760008a73ffffffffffffffffffffffffffffffffffffffff1673ffffffffffffffffffffffffffffffffffffffff168152602001908152602001600020546040516020016108f893929190611791565b6040516020818303038152906040528051906020012090506000816040516020016109239190611846565b6040516020818303038152906040528051906020012090508773ffffffffffffffffffffffffffffffffffffffff1660018286898960405160008152602001604052604051610975949392919061187b565b6020604051602081039080840390855afa158015610997573d6000803e3d6000fd5b5050506020604051035173ffffffffffffffffffffffffffffffffffffffff16146109f7576040517f08c379a00000000000000000000000000000000000000000000000000000000081526004016109ee9061190c565b60405180910390fd5b600760008973ffffffffffffffffffffffffffffffffffffffff1673ffffffffffffffffffffffffffffffffffffffff1681526020019081526020016000206000815480929190610a479061195b565b9190505550610a578830896104e1565b9250505095945050505050565b600033905090565b610a798383836001610c06565b505050565b6000610a8a8484610789565b90507fffffffffffffffffffffffffffffffffffffffffffffffffffffffffffffffff8114610b0c5781811015610afc578281836040517ffb8f41b2000000000000000000000000000000000000000000000000000000008152600401610af3939291906119b2565b60405180910390fd5b610b0b84848484036000610c06565b5b50505050565b600073ffffffffffffffffffffffffffffffffffffffff168373ffffffffffffffffffffffffffffffffffffffff1603610b845760006040517f96c6fd1e000000000000000000000000000000000000000000000000000000008152600401610b7b91906119e9565b60405180910390fd5b600073ffffffffffffffffffffffffffffffffffffffff168273ffffffffffffffffffffffffffffffffffffffff1603610bf65760006040517fec442f05000000000000000000000000000000000000000000000000000000008152600401610bed91906119e9565b60405180910390fd5b610c01838383610ddd565b505050565b600073ffffffffffffffffffffffffffffffffffffffff168473ffffffffffffffffffffffffffffffffffffffff1603610c785760006040517fe602df05000000000000000000000000000000000000000000000000000000008152600401610c6f91906119e9565b60405180910390fd5b600073ffffffffffffffffffffffffffffffffffffffff168373ffffffffffffffffffffffffffffffffffffffff1603610cea5760006040517f94280d62000000000000000000000000000000000000000000000000000000008152600401610ce191906119e9565b60405180910390fd5b81600160008673ffffffffffffffffffffffffffffffffffffffff1673ffffffffffffffffffffffffffffffffffffffff16815260200190815260200160002060008573ffffffffffffffffffffffffffffffffffffffff1673ffffffffffffffffffffffffffffffffffffffff168152602001908152602001600020819055508015610dd7578273ffffffffffffffffffffffffffffffffffffffff168473ffffffffffffffffffffffffffffffffffffffff167f8c5be1e5ebec7d5bd14f71427d1e84f3dd0314c0f7b2291e5b200ac8c7c3b92584604051610dce91906111d2565b60405180910390a35b50505050565b600073ffffffffffffffffffffffffffffffffffffffff168373ffffffffffffffffffffffffffffffffffffffff1603610e2f578060026000828254610e239190611a04565b92505081905550610f02565b60008060008573ffffffffffffffffffffffffffffffffffffffff1673ffffffffffffffffffffffffffffffffffffffff16815260200190815260200160002054905081811015610ebb578381836040517fe450d38c000000000000000000000000000000000000000000000000000000008152600401610eb2939291906119b2565b60405180910390fd5b8181036000808673ffffffffffffffffffffffffffffffffffffffff1673ffffffffffffffffffffffffffffffffffffffff16815260200190815260200160002081905550505b600073ffffffffffffffffffffffffffffffffffffffff168273ffffffffffffffffffffffffffffffffffffffff1603610f4b5780600260008282540392505081905550610f98565b806000808473ffffffffffffffffffffffffffffffffffffffff1673ffffffffffffffffffffffffffffffffffffffff168152602001908152602001600020600082825401925050819055505b8173ffffffffffffffffffffffffffffffffffffffff168373ffffffffffffffffffffffffffffffffffffffff167fddf252ad1be2c89b69c2b068fc378daa952ba7f163c4a11628f55a4df523b3ef83604051610ff591906111d2565b60405180910390a3505050565b600080fd5b600073ffffffffffffffffffffffffffffffffffffffff82169050919050565b600061103282611007565b9050919050565b61104281611027565b811461104d57600080fd5b50565b60008135905061105f81611039565b92915050565b6000819050919050565b61107881611065565b811461108357600080fd5b50565b6000813590506110958161106f565b92915050565b600080604083850312156110b2576110b1611002565b5b60006110c085828601611050565b92505060206110d185828601611086565b9150509250929050565b60008115159050919050565b6110f0816110db565b82525050565b600060208201905061110b60008301846110e7565b92915050565b600081519050919050565b600082825260208201905092915050565b60005b8381101561114b578082015181840152602081019050611130565b60008484015250505050565b6000601f19601f8301169050919050565b600061117382611111565b61117d818561111c565b935061118d81856020860161112d565b61119681611157565b840191505092915050565b600060208201905081810360008301526111bb8184611168565b905092915050565b6111cc81611065565b82525050565b60006020820190506111e760008301846111c3565b92915050565b60008060006060848603121561120657611205611002565b5b600061121486828701611050565b935050602061122586828701611050565b925050604061123686828701611086565b9150509250925092565b60006020828403121561125657611255611002565b5b600061126484828501611050565b91505092915050565b600060ff82169050919050565b6112838161126d565b82525050565b600060208201905061129e600083018461127a565b92915050565b6000602082840312156112ba576112b9611002565b5b60006112c884828501611086565b91505092915050565b600080604083850312156112e8576112e7611002565b5b60006112f685828601611050565b925050602061130785828601611050565b9150509250929050565b6000819050919050565b61132481611311565b811461132f57600080fd5b50565b6000813590506113418161131b565b92915050565b6113508161126d565b811461135b57600080fd5b50565b60008135905061136d81611347565b92915050565b600080600080600060a0868803121561138f5761138e611002565b5b600061139d88828901611050565b95505060206113ae88828901611086565b94505060406113bf88828901611332565b93505060606113d088828901611332565b92505060806113e18882890161135e565b9150509295509295909350565b7f4f6e6c79207468652063726561746f722063616e2073656e6420746f6b656e7360008201527f2e00000000000000000000000000000000000000000000000000000000000000602082015250565b600061144a60218361111c565b9150611455826113ee565b604082019050919050565b600060208201905081810360008301526114798161143d565b9050919050565b7f496e73756666696369656e742062616c616e636520696e2074686520636f6e7460008201527f726163742e000000000000000000000000000000000000000000000000000000602082015250565b60006114dc60258361111c565b91506114e782611480565b604082019050919050565b6000602082019050818103600083015261150b816114cf565b9050919050565b7f4e487b7100000000000000000000000000000000000000000000000000000000600052602260045260246000fd5b6000600282049050600182168061155957607f821691505b60208210810361156c5761156b611512565b5b50919050565b7f4f6e6c79207468652063726561746f722063616e20736574207468652072656c60008201527f617965722e000000000000000000000000000000000000000000000000000000602082015250565b60006115ce60258361111c565b91506115d982611572565b604082019050919050565b600060208201905081810360008301526115fd816115c1565b9050919050565b7f416d6f756e74206d7573742062652067726561746572207468616e207a65726f60008201527f2e00000000000000000000000000000000000000000000000000000000000000602082015250565b600061166060218361111c565b915061166b82611604565b604082019050919050565b6000602082019050818103600083015261168f81611653565b9050919050565b7f4f6e6c79207468652072656c617965722063616e2065786563757465206d657460008201527f612d7472616e73616374696f6e732e0000000000000000000000000000000000602082015250565b60006116f2602f8361111c565b91506116fd82611696565b604082019050919050565b60006020820190508181036000830152611721816116e5565b9050919050565b60008160601b9050919050565b600061174082611728565b9050919050565b600061175282611735565b9050919050565b61176a61176582611027565b611747565b82525050565b6000819050919050565b61178b61178682611065565b611770565b82525050565b600061179d8286611759565b6014820191506117ad828561177a565b6020820191506117bd828461177a565b602082019150819050949350505050565b600081905092915050565b7f19457468657265756d205369676e6564204d6573736167653a0a333200000000600082015250565b600061180f601c836117ce565b915061181a826117d9565b601c82019050919050565b6000819050919050565b61184061183b82611311565b611825565b82525050565b600061185182611802565b915061185d828461182f565b60208201915081905092915050565b61187581611311565b82525050565b6000608082019050611890600083018761186c565b61189d602083018661127a565b6118aa604083018561186c565b6118b7606083018461186c565b95945050505050565b7f496e76616c6964207369676e61747572652e0000000000000000000000000000600082015250565b60006118f660128361111c565b9150611901826118c0565b602082019050919050565b60006020820190508181036000830152611925816118e9565b9050919050565b7f4e487b7100000000000000000000000000000000000000000000000000000000600052601160045260246000fd5b600061196682611065565b91507fffffffffffffffffffffffffffffffffffffffffffffffffffffffffffffffff82036119985761199761192c565b5b600182019050919050565b6119ac81611027565b82525050565b60006060820190506119c760008301866119a3565b6119d460208301856111c3565b6119e160408301846111c3565b949350505050565b60006020820190506119fe60008301846119a3565b92915050565b6000611a0f82611065565b9150611a1a83611065565b9250828201905080821115611a3257611a3161192c565b5b9291505056fea26469706673582212205c0e4c9cc3b282de4180c053006e7601bb7282c775096dc75706122b207fdd0a64736f6c63430008180033",
    "linkReferences": {},
    "deployedLinkReferences": {}
}