{
  "_format": "hh-sol-artifact-1",
  "contractName": "LesdarusToken",
  "sourceName": "contracts/LesdarusToken.sol",
  "abi": [
    {
      "inputs": [
        {
          "internalType": "uint256",
          "name": "initialSupply",
          "type": "uint256"
        }
      ],
      "stateMutability": "nonpayable",
      "type": "constructor"
    },
    {
      "inputs": [
        {
          "internalType": "address",
          "name": "spender",
          "type": "address"
        },
        {
          "internalType": "uint256",
          "name": "allowance",
          "type": "uint256"
        },
        {
          "internalType": "uint256",
          "name": "needed",
          "type": "uint256"
        }
      ],
      "name": "ERC20InsufficientAllowance",
      "type": "error"
    },
    {
      "inputs": [
        {
          "internalType": "address",
          "name": "sender",
          "type": "address"
        },
        {
          "internalType": "uint256",
          "name": "balance",
          "type": "uint256"
        },
        {
          "internalType": "uint256",
          "name": "needed",
          "type": "uint256"
        }
      ],
      "name": "ERC20InsufficientBalance",
      "type": "error"
    },
    {
      "inputs": [
        {
          "internalType": "address",
          "name": "approver",
          "type": "address"
        }
      ],
      "name": "ERC20InvalidApprover",
      "type": "error"
    },
    {
      "inputs": [
        {
          "internalType": "address",
          "name": "receiver",
          "type": "address"
        }
      ],
      "name": "ERC20InvalidReceiver",
      "type": "error"
    },
    {
      "inputs": [
        {
          "internalType": "address",
          "name": "sender",
          "type": "address"
        }
      ],
      "name": "ERC20InvalidSender",
      "type": "error"
    },
    {
      "inputs": [
        {
          "internalType": "address",
          "name": "spender",
          "type": "address"
        }
      ],
      "name": "ERC20InvalidSpender",
      "type": "error"
    },
    {
      "anonymous": false,
      "inputs": [
        {
          "indexed": true,
          "internalType": "address",
          "name": "owner",
          "type": "address"
        },
        {
          "indexed": true,
          "internalType": "address",
          "name": "spender",
          "type": "address"
        },
        {
          "indexed": false,
          "internalType": "uint256",
          "name": "value",
          "type": "uint256"
        }
      ],
      "name": "Approval",
      "type": "event"
    },
    {
      "anonymous": false,
      "inputs": [
        {
          "indexed": true,
          "internalType": "address",
          "name": "from",
          "type": "address"
        },
        {
          "indexed": true,
          "internalType": "address",
          "name": "to",
          "type": "address"
        },
        {
          "indexed": false,
          "internalType": "uint256",
          "name": "value",
          "type": "uint256"
        }
      ],
      "name": "Transfer",
      "type": "event"
    },
    {
      "inputs": [
        {
          "internalType": "address",
          "name": "owner",
          "type": "address"
        },
        {
          "internalType": "address",
          "name": "spender",
          "type": "address"
        }
      ],
      "name": "allowance",
      "outputs": [
        {
          "internalType": "uint256",
          "name": "",
          "type": "uint256"
        }
      ],
      "stateMutability": "view",
      "type": "function"
    },
    {
      "inputs": [
        {
          "internalType": "address",
          "name": "spender",
          "type": "address"
        },
        {
          "internalType": "uint256",
          "name": "value",
          "type": "uint256"
        }
      ],
      "name": "approve",
      "outputs": [
        {
          "internalType": "bool",
          "name": "",
          "type": "bool"
        }
      ],
      "stateMutability": "nonpayable",
      "type": "function"
    },
    {
      "inputs": [
        {
          "internalType": "address",
          "name": "account",
          "type": "address"
        }
      ],
      "name": "balanceOf",
      "outputs": [
        {
          "internalType": "uint256",
          "name": "",
          "type": "uint256"
        }
      ],
      "stateMutability": "view",
      "type": "function"
    },
    {
      "inputs": [],
      "name": "decimals",
      "outputs": [
        {
          "internalType": "uint8",
          "name": "",
          "type": "uint8"
        }
      ],
      "stateMutability": "view",
      "type": "function"
    },
    {
      "inputs": [],
      "name": "deposit",
      "outputs": [],
      "stateMutability": "payable",
      "type": "function"
    },
    {
      "inputs": [
        {
          "internalType": "address",
          "name": "userAddress",
          "type": "address"
        },
        {
          "internalType": "uint256",
          "name": "amount",
          "type": "uint256"
        },
        {
          "internalType": "bytes32",
          "name": "r",
          "type": "bytes32"
        },
        {
          "internalType": "bytes32",
          "name": "s",
          "type": "bytes32"
        },
        {
          "internalType": "uint8",
          "name": "v",
          "type": "uint8"
        }
      ],
      "name": "executeMetaTransaction",
      "outputs": [
        {
          "internalType": "bool",
          "name": "",
          "type": "bool"
        }
      ],
      "stateMutability": "nonpayable",
      "type": "function"
    },
    {
      "inputs": [],
      "name": "getContractETHBalance",
      "outputs": [
        {
          "internalType": "uint256",
          "name": "",
          "type": "uint256"
        }
      ],
      "stateMutability": "view",
      "type": "function"
    },
    {
      "inputs": [],
      "name": "getContractLDSBalance",
      "outputs": [
        {
          "internalType": "uint256",
          "name": "",
          "type": "uint256"
        }
      ],
      "stateMutability": "view",
      "type": "function"
    },
    {
      "inputs": [
        {
          "internalType": "address",
          "name": "userAddress",
          "type": "address"
        }
      ],
      "name": "getNonce",
      "outputs": [
        {
          "internalType": "uint256",
          "name": "",
          "type": "uint256"
        }
      ],
      "stateMutability": "view",
      "type": "function"
    },
    {
      "inputs": [],
      "name": "name",
      "outputs": [
        {
          "internalType": "string",
          "name": "",
          "type": "string"
        }
      ],
      "stateMutability": "view",
      "type": "function"
    },
    {
      "inputs": [
        {
          "internalType": "address",
          "name": "recipient",
          "type": "address"
        },
        {
          "internalType": "uint256",
          "name": "amount",
          "type": "uint256"
        }
      ],
      "name": "sendTokens",
      "outputs": [
        {
          "internalType": "bool",
          "name": "",
          "type": "bool"
        }
      ],
      "stateMutability": "nonpayable",
      "type": "function"
    },
    {
      "inputs": [
        {
          "internalType": "address",
          "name": "relayer",
          "type": "address"
        }
      ],
      "name": "setRelayer",
      "outputs": [],
      "stateMutability": "nonpayable",
      "type": "function"
    },
    {
      "inputs": [],
      "name": "symbol",
      "outputs": [
        {
          "internalType": "string",
          "name": "",
          "type": "string"
        }
      ],
      "stateMutability": "view",
      "type": "function"
    },
    {
      "inputs": [],
      "name": "totalSupply",
      "outputs": [
        {
          "internalType": "uint256",
          "name": "",
          "type": "uint256"
        }
      ],
      "stateMutability": "view",
      "type": "function"
    },
    {
      "inputs": [
        {
          "internalType": "address",
          "name": "to",
          "type": "address"
        },
        {
          "internalType": "uint256",
          "name": "value",
          "type": "uint256"
        }
      ],
      "name": "transfer",
      "outputs": [
        {
          "internalType": "bool",
          "name": "",
          "type": "bool"
        }
      ],
      "stateMutability": "nonpayable",
      "type": "function"
    },
    {
      "inputs": [
        {
          "internalType": "address",
          "name": "from",
          "type": "address"
        },
        {
          "internalType": "address",
          "name": "to",
          "type": "address"
        },
        {
          "internalType": "uint256",
          "name": "value",
          "type": "uint256"
        }
      ],
      "name": "transferFrom",
      "outputs": [
        {
          "internalType": "bool",
          "name": "",
          "type": "bool"
        }
      ],
      "stateMutability": "nonpayable",
      "type": "function"
    }
  ],
  "bytecode": "0x60806040523480156200001157600080fd5b50604051620025cd380380620025cd833981810160405281019062000037919062000461565b6040518060400160405280600881526020017f4c657364617275730000000000000000000000000000000000000000000000008152506040518060400160405280600381526020017f4c445300000000000000000000000000000000000000000000000000000000008152508160039081620000b4919062000703565b508060049081620000c6919062000703565b50505033600560006101000a81548173ffffffffffffffffffffffffffffffffffffffff021916908373ffffffffffffffffffffffffffffffffffffffff16021790555033600660006101000a81548173ffffffffffffffffffffffffffffffffffffffff021916908373ffffffffffffffffffffffffffffffffffffffff1602179055506200015d30826200016460201b60201c565b5062000921565b600073ffffffffffffffffffffffffffffffffffffffff168273ffffffffffffffffffffffffffffffffffffffff1603620001d95760006040517fec442f05000000000000000000000000000000000000000000000000000000008152600401620001d091906200082f565b60405180910390fd5b620001ed60008383620001f160201b60201c565b5050565b600073ffffffffffffffffffffffffffffffffffffffff168373ffffffffffffffffffffffffffffffffffffffff1603620002475780600260008282546200023a91906200087b565b925050819055506200031d565b60008060008573ffffffffffffffffffffffffffffffffffffffff1673ffffffffffffffffffffffffffffffffffffffff16815260200190815260200160002054905081811015620002d6578381836040517fe450d38c000000000000000000000000000000000000000000000000000000008152600401620002cd93929190620008c7565b60405180910390fd5b8181036000808673ffffffffffffffffffffffffffffffffffffffff1673ffffffffffffffffffffffffffffffffffffffff16815260200190815260200160002081905550505b600073ffffffffffffffffffffffffffffffffffffffff168273ffffffffffffffffffffffffffffffffffffffff1603620003685780600260008282540392505081905550620003b5565b806000808473ffffffffffffffffffffffffffffffffffffffff1673ffffffffffffffffffffffffffffffffffffffff168152602001908152602001600020600082825401925050819055505b8173ffffffffffffffffffffffffffffffffffffffff168373ffffffffffffffffffffffffffffffffffffffff167fddf252ad1be2c89b69c2b068fc378daa952ba7f163c4a11628f55a4df523b3ef8360405162000414919062000904565b60405180910390a3505050565b600080fd5b6000819050919050565b6200043b8162000426565b81146200044757600080fd5b50565b6000815190506200045b8162000430565b92915050565b6000602082840312156200047a576200047962000421565b5b60006200048a848285016200044a565b91505092915050565b600081519050919050565b7f4e487b7100000000000000000000000000000000000000000000000000000000600052604160045260246000fd5b7f4e487b7100000000000000000000000000000000000000000000000000000000600052602260045260246000fd5b600060028204905060018216806200051557607f821691505b6020821081036200052b576200052a620004cd565b5b50919050565b60008190508160005260206000209050919050565b60006020601f8301049050919050565b600082821b905092915050565b600060088302620005957fffffffffffffffffffffffffffffffffffffffffffffffffffffffffffffffff8262000556565b620005a1868362000556565b95508019841693508086168417925050509392505050565b6000819050919050565b6000620005e4620005de620005d88462000426565b620005b9565b62000426565b9050919050565b6000819050919050565b6200060083620005c3565b620006186200060f82620005eb565b84845462000563565b825550505050565b600090565b6200062f62000620565b6200063c818484620005f5565b505050565b5b8181101562000664576200065860008262000625565b60018101905062000642565b5050565b601f821115620006b3576200067d8162000531565b620006888462000546565b8101602085101562000698578190505b620006b0620006a78562000546565b83018262000641565b50505b505050565b600082821c905092915050565b6000620006d860001984600802620006b8565b1980831691505092915050565b6000620006f38383620006c5565b9150826002028217905092915050565b6200070e8262000493565b67ffffffffffffffff8111156200072a57620007296200049e565b5b620007368254620004fc565b6200074382828562000668565b600060209050601f8311600181146200077b576000841562000766578287015190505b620007728582620006e5565b865550620007e2565b601f1984166200078b8662000531565b60005b82811015620007b5578489015182556001820191506020850194506020810190506200078e565b86831015620007d55784890151620007d1601f891682620006c5565b8355505b6001600288020188555050505b505050505050565b600073ffffffffffffffffffffffffffffffffffffffff82169050919050565b60006200081782620007ea565b9050919050565b62000829816200080a565b82525050565b60006020820190506200084660008301846200081e565b92915050565b7f4e487b7100000000000000000000000000000000000000000000000000000000600052601160045260246000fd5b6000620008888262000426565b9150620008958362000426565b9250828201905080821115620008b057620008af6200084c565b5b92915050565b620008c18162000426565b82525050565b6000606082019050620008de60008301866200081e565b620008ed6020830185620008b6565b620008fc6040830184620008b6565b949350505050565b60006020820190506200091b6000830184620008b6565b92915050565b611c9c80620009316000396000f3fe6080604052600436106100f35760003560e01c806370a082311161008a578063bed0fb0411610059578063bed0fb0414610366578063d0e30db014610391578063dd62ed3e1461039b578063f633b1a8146103d8576100f3565b806370a08231146102965780638c89a0ad146102d357806395d89b41146102fe578063a9059cbb14610329576100f3565b806323b872dd116100c657806323b872dd146101c85780632d0335ab14610205578063313ce567146102425780636548e9bc1461026d576100f3565b806305ab421d146100f857806306fdde0314610135578063095ea7b31461016057806318160ddd1461019d575b600080fd5b34801561010457600080fd5b5061011f600480360381019061011a9190611264565b610415565b60405161012c91906112bf565b60405180910390f35b34801561014157600080fd5b5061014a610507565b604051610157919061136a565b60405180910390f35b34801561016c57600080fd5b5061018760048036038101906101829190611264565b610599565b60405161019491906112bf565b60405180910390f35b3480156101a957600080fd5b506101b26105bc565b6040516101bf919061139b565b60405180910390f35b3480156101d457600080fd5b506101ef60048036038101906101ea91906113b6565b6105c6565b6040516101fc91906112bf565b60405180910390f35b34801561021157600080fd5b5061022c60048036038101906102279190611409565b6105f5565b604051610239919061139b565b60405180910390f35b34801561024e57600080fd5b5061025761063e565b6040516102649190611452565b60405180910390f35b34801561027957600080fd5b50610294600480360381019061028f9190611409565b610647565b005b3480156102a257600080fd5b506102bd60048036038101906102b89190611409565b61071b565b6040516102ca919061139b565b60405180910390f35b3480156102df57600080fd5b506102e8610763565b6040516102f5919061139b565b60405180910390f35b34801561030a57600080fd5b506103136107fb565b604051610320919061136a565b60405180910390f35b34801561033557600080fd5b50610350600480360381019061034b9190611264565b61088d565b60405161035d91906112bf565b60405180910390f35b34801561037257600080fd5b5061037b6108b0565b604051610388919061139b565b60405180910390f35b6103996108c0565b005b3480156103a757600080fd5b506103c260048036038101906103bd919061146d565b610952565b6040516103cf919061139b565b60405180910390f35b3480156103e457600080fd5b506103ff60048036038101906103fa919061150f565b6109d9565b60405161040c91906112bf565b60405180910390f35b6000600560009054906101000a900473ffffffffffffffffffffffffffffffffffffffff1673ffffffffffffffffffffffffffffffffffffffff163373ffffffffffffffffffffffffffffffffffffffff16146104a7576040517f08c379a000000000000000000000000000000000000000000000000000000000815260040161049e906115fc565b60405180910390fd5b816104b13061071b565b10156104f2576040517f08c379a00000000000000000000000000000000000000000000000000000000081526004016104e99061168e565b60405180910390fd5b6104fd308484610c2d565b6001905092915050565b606060038054610516906116dd565b80601f0160208091040260200160405190810160405280929190818152602001828054610542906116dd565b801561058f5780601f106105645761010080835404028352916020019161058f565b820191906000526020600020905b81548152906001019060200180831161057257829003601f168201915b5050505050905090565b6000806105a4610d21565b90506105b1818585610d29565b600191505092915050565b6000600254905090565b6000806105d1610d21565b90506105de858285610d3b565b6105e9858585610c2d565b60019150509392505050565b6000600760008373ffffffffffffffffffffffffffffffffffffffff1673ffffffffffffffffffffffffffffffffffffffff168152602001908152602001600020549050919050565b60006012905090565b600560009054906101000a900473ffffffffffffffffffffffffffffffffffffffff1673ffffffffffffffffffffffffffffffffffffffff163373ffffffffffffffffffffffffffffffffffffffff16146106d7576040517f08c379a00000000000000000000000000000000000000000000000000000000081526004016106ce90611780565b60405180910390fd5b80600660006101000a81548173ffffffffffffffffffffffffffffffffffffffff021916908373ffffffffffffffffffffffffffffffffffffffff16021790555050565b60008060008373ffffffffffffffffffffffffffffffffffffffff1673ffffffffffffffffffffffffffffffffffffffff168152602001908152602001600020549050919050565b6000600560009054906101000a900473ffffffffffffffffffffffffffffffffffffffff1673ffffffffffffffffffffffffffffffffffffffff163373ffffffffffffffffffffffffffffffffffffffff16146107f5576040517f08c379a00000000000000000000000000000000000000000000000000000000081526004016107ec90611812565b60405180910390fd5b47905090565b60606004805461080a906116dd565b80601f0160208091040260200160405190810160405280929190818152602001828054610836906116dd565b80156108835780601f1061085857610100808354040283529160200191610883565b820191906000526020600020905b81548152906001019060200180831161086657829003601f168201915b5050505050905090565b600080610898610d21565b90506108a5818585610c2d565b600191505092915050565b60006108bb3061071b565b905090565b600560009054906101000a900473ffffffffffffffffffffffffffffffffffffffff1673ffffffffffffffffffffffffffffffffffffffff163373ffffffffffffffffffffffffffffffffffffffff1614610950576040517f08c379a0000000000000000000000000000000000000000000000000000000008152600401610947906118a4565b60405180910390fd5b565b6000600160008473ffffffffffffffffffffffffffffffffffffffff1673ffffffffffffffffffffffffffffffffffffffff16815260200190815260200160002060008373ffffffffffffffffffffffffffffffffffffffff1673ffffffffffffffffffffffffffffffffffffffff16815260200190815260200160002054905092915050565b6000600660009054906101000a900473ffffffffffffffffffffffffffffffffffffffff1673ffffffffffffffffffffffffffffffffffffffff163373ffffffffffffffffffffffffffffffffffffffff1614610a6b576040517f08c379a0000000000000000000000000000000000000000000000000000000008152600401610a6290611936565b60405180910390fd5b60008686600760008a73ffffffffffffffffffffffffffffffffffffffff1673ffffffffffffffffffffffffffffffffffffffff16815260200190815260200160002054604051602001610ac1939291906119bf565b604051602081830303815290604052805190602001209050600081604051602001610aec9190611a74565b6040516020818303038152906040528051906020012090508773ffffffffffffffffffffffffffffffffffffffff1660018286898960405160008152602001604052604051610b3e9493929190611aa9565b6020604051602081039080840390855afa158015610b60573d6000803e3d6000fd5b5050506020604051035173ffffffffffffffffffffffffffffffffffffffff1614610bc0576040517f08c379a0000000000000000000000000000000000000000000000000000000008152600401610bb790611b3a565b60405180910390fd5b600760008973ffffffffffffffffffffffffffffffffffffffff1673ffffffffffffffffffffffffffffffffffffffff1681526020019081526020016000206000815480929190610c1090611b89565b9190505550610c208830896105c6565b9250505095945050505050565b600073ffffffffffffffffffffffffffffffffffffffff168373ffffffffffffffffffffffffffffffffffffffff1603610c9f5760006040517f96c6fd1e000000000000000000000000000000000000000000000000000000008152600401610c969190611be0565b60405180910390fd5b600073ffffffffffffffffffffffffffffffffffffffff168273ffffffffffffffffffffffffffffffffffffffff1603610d115760006040517fec442f05000000000000000000000000000000000000000000000000000000008152600401610d089190611be0565b60405180910390fd5b610d1c838383610dcf565b505050565b600033905090565b610d368383836001610ff4565b505050565b6000610d478484610952565b90507fffffffffffffffffffffffffffffffffffffffffffffffffffffffffffffffff8114610dc95781811015610db9578281836040517ffb8f41b2000000000000000000000000000000000000000000000000000000008152600401610db093929190611bfb565b60405180910390fd5b610dc884848484036000610ff4565b5b50505050565b600073ffffffffffffffffffffffffffffffffffffffff168373ffffffffffffffffffffffffffffffffffffffff1603610e21578060026000828254610e159190611c32565b92505081905550610ef4565b60008060008573ffffffffffffffffffffffffffffffffffffffff1673ffffffffffffffffffffffffffffffffffffffff16815260200190815260200160002054905081811015610ead578381836040517fe450d38c000000000000000000000000000000000000000000000000000000008152600401610ea493929190611bfb565b60405180910390fd5b8181036000808673ffffffffffffffffffffffffffffffffffffffff1673ffffffffffffffffffffffffffffffffffffffff16815260200190815260200160002081905550505b600073ffffffffffffffffffffffffffffffffffffffff168273ffffffffffffffffffffffffffffffffffffffff1603610f3d5780600260008282540392505081905550610f8a565b806000808473ffffffffffffffffffffffffffffffffffffffff1673ffffffffffffffffffffffffffffffffffffffff168152602001908152602001600020600082825401925050819055505b8173ffffffffffffffffffffffffffffffffffffffff168373ffffffffffffffffffffffffffffffffffffffff167fddf252ad1be2c89b69c2b068fc378daa952ba7f163c4a11628f55a4df523b3ef83604051610fe7919061139b565b60405180910390a3505050565b600073ffffffffffffffffffffffffffffffffffffffff168473ffffffffffffffffffffffffffffffffffffffff16036110665760006040517fe602df0500000000000000000000000000000000000000000000000000000000815260040161105d9190611be0565b60405180910390fd5b600073ffffffffffffffffffffffffffffffffffffffff168373ffffffffffffffffffffffffffffffffffffffff16036110d85760006040517f94280d620000000000000000000000000000000000000000000000000000000081526004016110cf9190611be0565b60405180910390fd5b81600160008673ffffffffffffffffffffffffffffffffffffffff1673ffffffffffffffffffffffffffffffffffffffff16815260200190815260200160002060008573ffffffffffffffffffffffffffffffffffffffff1673ffffffffffffffffffffffffffffffffffffffff1681526020019081526020016000208190555080156111c5578273ffffffffffffffffffffffffffffffffffffffff168473ffffffffffffffffffffffffffffffffffffffff167f8c5be1e5ebec7d5bd14f71427d1e84f3dd0314c0f7b2291e5b200ac8c7c3b925846040516111bc919061139b565b60405180910390a35b50505050565b600080fd5b600073ffffffffffffffffffffffffffffffffffffffff82169050919050565b60006111fb826111d0565b9050919050565b61120b816111f0565b811461121657600080fd5b50565b60008135905061122881611202565b92915050565b6000819050919050565b6112418161122e565b811461124c57600080fd5b50565b60008135905061125e81611238565b92915050565b6000806040838503121561127b5761127a6111cb565b5b600061128985828601611219565b925050602061129a8582860161124f565b9150509250929050565b60008115159050919050565b6112b9816112a4565b82525050565b60006020820190506112d460008301846112b0565b92915050565b600081519050919050565b600082825260208201905092915050565b60005b838110156113145780820151818401526020810190506112f9565b60008484015250505050565b6000601f19601f8301169050919050565b600061133c826112da565b61134681856112e5565b93506113568185602086016112f6565b61135f81611320565b840191505092915050565b600060208201905081810360008301526113848184611331565b905092915050565b6113958161122e565b82525050565b60006020820190506113b0600083018461138c565b92915050565b6000806000606084860312156113cf576113ce6111cb565b5b60006113dd86828701611219565b93505060206113ee86828701611219565b92505060406113ff8682870161124f565b9150509250925092565b60006020828403121561141f5761141e6111cb565b5b600061142d84828501611219565b91505092915050565b600060ff82169050919050565b61144c81611436565b82525050565b60006020820190506114676000830184611443565b92915050565b60008060408385031215611484576114836111cb565b5b600061149285828601611219565b92505060206114a385828601611219565b9150509250929050565b6000819050919050565b6114c0816114ad565b81146114cb57600080fd5b50565b6000813590506114dd816114b7565b92915050565b6114ec81611436565b81146114f757600080fd5b50565b600081359050611509816114e3565b92915050565b600080600080600060a0868803121561152b5761152a6111cb565b5b600061153988828901611219565b955050602061154a8882890161124f565b945050604061155b888289016114ce565b935050606061156c888289016114ce565b925050608061157d888289016114fa565b9150509295509295909350565b7f4f6e6c79207468652063726561746f722063616e2073656e6420746f6b656e7360008201527f2e00000000000000000000000000000000000000000000000000000000000000602082015250565b60006115e66021836112e5565b91506115f18261158a565b604082019050919050565b60006020820190508181036000830152611615816115d9565b9050919050565b7f496e73756666696369656e742062616c616e636520696e2074686520636f6e7460008201527f726163742e000000000000000000000000000000000000000000000000000000602082015250565b60006116786025836112e5565b91506116838261161c565b604082019050919050565b600060208201905081810360008301526116a78161166b565b9050919050565b7f4e487b7100000000000000000000000000000000000000000000000000000000600052602260045260246000fd5b600060028204905060018216806116f557607f821691505b602082108103611708576117076116ae565b5b50919050565b7f4f6e6c79207468652063726561746f722063616e20736574207468652072656c60008201527f617965722e000000000000000000000000000000000000000000000000000000602082015250565b600061176a6025836112e5565b91506117758261170e565b604082019050919050565b600060208201905081810360008301526117998161175d565b9050919050565b7f4f6e6c79207468652063726561746f722063616e2067657420636f6e7472616360008201527f74204554482062616c616e63652e000000000000000000000000000000000000602082015250565b60006117fc602e836112e5565b9150611807826117a0565b604082019050919050565b6000602082019050818103600083015261182b816117ef565b9050919050565b7f4f6e6c79207468652063726561746f722063616e206465706f7369742045544860008201527f2e00000000000000000000000000000000000000000000000000000000000000602082015250565b600061188e6021836112e5565b915061189982611832565b604082019050919050565b600060208201905081810360008301526118bd81611881565b9050919050565b7f4f6e6c79207468652072656c617965722063616e2065786563757465206d657460008201527f612d7472616e73616374696f6e732e0000000000000000000000000000000000602082015250565b6000611920602f836112e5565b915061192b826118c4565b604082019050919050565b6000602082019050818103600083015261194f81611913565b9050919050565b60008160601b9050919050565b600061196e82611956565b9050919050565b600061198082611963565b9050919050565b611998611993826111f0565b611975565b82525050565b6000819050919050565b6119b96119b48261122e565b61199e565b82525050565b60006119cb8286611987565b6014820191506119db82856119a8565b6020820191506119eb82846119a8565b602082019150819050949350505050565b600081905092915050565b7f19457468657265756d205369676e6564204d6573736167653a0a333200000000600082015250565b6000611a3d601c836119fc565b9150611a4882611a07565b601c82019050919050565b6000819050919050565b611a6e611a69826114ad565b611a53565b82525050565b6000611a7f82611a30565b9150611a8b8284611a5d565b60208201915081905092915050565b611aa3816114ad565b82525050565b6000608082019050611abe6000830187611a9a565b611acb6020830186611443565b611ad86040830185611a9a565b611ae56060830184611a9a565b95945050505050565b7f496e76616c6964207369676e61747572652e0000000000000000000000000000600082015250565b6000611b246012836112e5565b9150611b2f82611aee565b602082019050919050565b60006020820190508181036000830152611b5381611b17565b9050919050565b7f4e487b7100000000000000000000000000000000000000000000000000000000600052601160045260246000fd5b6000611b948261122e565b91507fffffffffffffffffffffffffffffffffffffffffffffffffffffffffffffffff8203611bc657611bc5611b5a565b5b600182019050919050565b611bda816111f0565b82525050565b6000602082019050611bf56000830184611bd1565b92915050565b6000606082019050611c106000830186611bd1565b611c1d602083018561138c565b611c2a604083018461138c565b949350505050565b6000611c3d8261122e565b9150611c488361122e565b9250828201905080821115611c6057611c5f611b5a565b5b9291505056fea264697066735822122083fa0b9b22764c2898a0d13cf699d11f65c7464242bdf0dd06132b9823e9e31164736f6c63430008180033",
  "linkReferences": {},
  "deployedLinkReferences": {}
}