{
  "_format": "hh-sol-artifact-1",
  "contractName": "LesdarusToken",
  "sourceName": "contracts/LesdarusToken.sol",
  "abi": [
    {
      "inputs": [
        {
          "internalType": "uint256",
          "name": "initialSupply",
          "type": "uint256"
        }
      ],
      "stateMutability": "nonpayable",
      "type": "constructor"
    },
    {
      "inputs": [
        {
          "internalType": "address",
          "name": "spender",
          "type": "address"
        },
        {
          "internalType": "uint256",
          "name": "allowance",
          "type": "uint256"
        },
        {
          "internalType": "uint256",
          "name": "needed",
          "type": "uint256"
        }
      ],
      "name": "ERC20InsufficientAllowance",
      "type": "error"
    },
    {
      "inputs": [
        {
          "internalType": "address",
          "name": "sender",
          "type": "address"
        },
        {
          "internalType": "uint256",
          "name": "balance",
          "type": "uint256"
        },
        {
          "internalType": "uint256",
          "name": "needed",
          "type": "uint256"
        }
      ],
      "name": "ERC20InsufficientBalance",
      "type": "error"
    },
    {
      "inputs": [
        {
          "internalType": "address",
          "name": "approver",
          "type": "address"
        }
      ],
      "name": "ERC20InvalidApprover",
      "type": "error"
    },
    {
      "inputs": [
        {
          "internalType": "address",
          "name": "receiver",
          "type": "address"
        }
      ],
      "name": "ERC20InvalidReceiver",
      "type": "error"
    },
    {
      "inputs": [
        {
          "internalType": "address",
          "name": "sender",
          "type": "address"
        }
      ],
      "name": "ERC20InvalidSender",
      "type": "error"
    },
    {
      "inputs": [
        {
          "internalType": "address",
          "name": "spender",
          "type": "address"
        }
      ],
      "name": "ERC20InvalidSpender",
      "type": "error"
    },
    {
      "anonymous": false,
      "inputs": [
        {
          "indexed": true,
          "internalType": "address",
          "name": "owner",
          "type": "address"
        },
        {
          "indexed": true,
          "internalType": "address",
          "name": "spender",
          "type": "address"
        },
        {
          "indexed": false,
          "internalType": "uint256",
          "name": "value",
          "type": "uint256"
        }
      ],
      "name": "Approval",
      "type": "event"
    },
    {
      "anonymous": false,
      "inputs": [
        {
          "indexed": true,
          "internalType": "address",
          "name": "from",
          "type": "address"
        },
        {
          "indexed": true,
          "internalType": "address",
          "name": "to",
          "type": "address"
        },
        {
          "indexed": false,
          "internalType": "uint256",
          "name": "value",
          "type": "uint256"
        }
      ],
      "name": "Transfer",
      "type": "event"
    },
    {
      "inputs": [
        {
          "internalType": "address",
          "name": "owner",
          "type": "address"
        },
        {
          "internalType": "address",
          "name": "spender",
          "type": "address"
        }
      ],
      "name": "allowance",
      "outputs": [
        {
          "internalType": "uint256",
          "name": "",
          "type": "uint256"
        }
      ],
      "stateMutability": "view",
      "type": "function"
    },
    {
      "inputs": [
        {
          "internalType": "address",
          "name": "spender",
          "type": "address"
        },
        {
          "internalType": "uint256",
          "name": "value",
          "type": "uint256"
        }
      ],
      "name": "approve",
      "outputs": [
        {
          "internalType": "bool",
          "name": "",
          "type": "bool"
        }
      ],
      "stateMutability": "nonpayable",
      "type": "function"
    },
    {
      "inputs": [
        {
          "internalType": "address",
          "name": "account",
          "type": "address"
        }
      ],
      "name": "balanceOf",
      "outputs": [
        {
          "internalType": "uint256",
          "name": "",
          "type": "uint256"
        }
      ],
      "stateMutability": "view",
      "type": "function"
    },
    {
      "inputs": [],
      "name": "decimals",
      "outputs": [
        {
          "internalType": "uint8",
          "name": "",
          "type": "uint8"
        }
      ],
      "stateMutability": "view",
      "type": "function"
    },
    {
      "inputs": [],
      "name": "depositETH",
      "outputs": [],
      "stateMutability": "payable",
      "type": "function"
    },
    {
      "inputs": [
        {
          "internalType": "uint256",
          "name": "amount",
          "type": "uint256"
        }
      ],
      "name": "depositLDS",
      "outputs": [],
      "stateMutability": "nonpayable",
      "type": "function"
    },
    {
      "inputs": [],
      "name": "getContractETHBalance",
      "outputs": [
        {
          "internalType": "uint256",
          "name": "",
          "type": "uint256"
        }
      ],
      "stateMutability": "view",
      "type": "function"
    },
    {
      "inputs": [],
      "name": "getContractLDSBalance",
      "outputs": [
        {
          "internalType": "uint256",
          "name": "",
          "type": "uint256"
        }
      ],
      "stateMutability": "view",
      "type": "function"
    },
    {
      "inputs": [],
      "name": "name",
      "outputs": [
        {
          "internalType": "string",
          "name": "",
          "type": "string"
        }
      ],
      "stateMutability": "view",
      "type": "function"
    },
    {
      "inputs": [
        {
          "internalType": "address",
          "name": "recipient",
          "type": "address"
        },
        {
          "internalType": "uint256",
          "name": "amount",
          "type": "uint256"
        }
      ],
      "name": "sendTokens",
      "outputs": [
        {
          "internalType": "bool",
          "name": "",
          "type": "bool"
        }
      ],
      "stateMutability": "nonpayable",
      "type": "function"
    },
    {
      "inputs": [],
      "name": "symbol",
      "outputs": [
        {
          "internalType": "string",
          "name": "",
          "type": "string"
        }
      ],
      "stateMutability": "view",
      "type": "function"
    },
    {
      "inputs": [],
      "name": "totalSupply",
      "outputs": [
        {
          "internalType": "uint256",
          "name": "",
          "type": "uint256"
        }
      ],
      "stateMutability": "view",
      "type": "function"
    },
    {
      "inputs": [
        {
          "internalType": "address",
          "name": "to",
          "type": "address"
        },
        {
          "internalType": "uint256",
          "name": "value",
          "type": "uint256"
        }
      ],
      "name": "transfer",
      "outputs": [
        {
          "internalType": "bool",
          "name": "",
          "type": "bool"
        }
      ],
      "stateMutability": "nonpayable",
      "type": "function"
    },
    {
      "inputs": [
        {
          "internalType": "address",
          "name": "from",
          "type": "address"
        },
        {
          "internalType": "address",
          "name": "to",
          "type": "address"
        },
        {
          "internalType": "uint256",
          "name": "value",
          "type": "uint256"
        }
      ],
      "name": "transferFrom",
      "outputs": [
        {
          "internalType": "bool",
          "name": "",
          "type": "bool"
        }
      ],
      "stateMutability": "nonpayable",
      "type": "function"
    },
    {
      "inputs": [
        {
          "internalType": "uint256",
          "name": "amount",
          "type": "uint256"
        }
      ],
      "name": "withdrawETH",
      "outputs": [],
      "stateMutability": "nonpayable",
      "type": "function"
    },
    {
      "inputs": [
        {
          "internalType": "uint256",
          "name": "amount",
          "type": "uint256"
        }
      ],
      "name": "withdrawLDS",
      "outputs": [],
      "stateMutability": "nonpayable",
      "type": "function"
    }
  ],
  "bytecode": "0x60806040523480156200001157600080fd5b50604051620020b8380380620020b8833981810160405281019062000037919062000420565b6040518060400160405280600881526020017f4c657364617275730000000000000000000000000000000000000000000000008152506040518060400160405280600381526020017f4c445300000000000000000000000000000000000000000000000000000000008152508160039081620000b49190620006c2565b508060049081620000c69190620006c2565b50505033600560006101000a81548173ffffffffffffffffffffffffffffffffffffffff021916908373ffffffffffffffffffffffffffffffffffffffff1602179055506200011c30826200012360201b60201c565b50620008e0565b600073ffffffffffffffffffffffffffffffffffffffff168273ffffffffffffffffffffffffffffffffffffffff1603620001985760006040517fec442f050000000000000000000000000000000000000000000000000000000081526004016200018f9190620007ee565b60405180910390fd5b620001ac60008383620001b060201b60201c565b5050565b600073ffffffffffffffffffffffffffffffffffffffff168373ffffffffffffffffffffffffffffffffffffffff160362000206578060026000828254620001f991906200083a565b92505081905550620002dc565b60008060008573ffffffffffffffffffffffffffffffffffffffff1673ffffffffffffffffffffffffffffffffffffffff1681526020019081526020016000205490508181101562000295578381836040517fe450d38c0000000000000000000000000000000000000000000000000000000081526004016200028c9392919062000886565b60405180910390fd5b8181036000808673ffffffffffffffffffffffffffffffffffffffff1673ffffffffffffffffffffffffffffffffffffffff16815260200190815260200160002081905550505b600073ffffffffffffffffffffffffffffffffffffffff168273ffffffffffffffffffffffffffffffffffffffff160362000327578060026000828254039250508190555062000374565b806000808473ffffffffffffffffffffffffffffffffffffffff1673ffffffffffffffffffffffffffffffffffffffff168152602001908152602001600020600082825401925050819055505b8173ffffffffffffffffffffffffffffffffffffffff168373ffffffffffffffffffffffffffffffffffffffff167fddf252ad1be2c89b69c2b068fc378daa952ba7f163c4a11628f55a4df523b3ef83604051620003d39190620008c3565b60405180910390a3505050565b600080fd5b6000819050919050565b620003fa81620003e5565b81146200040657600080fd5b50565b6000815190506200041a81620003ef565b92915050565b600060208284031215620004395762000438620003e0565b5b6000620004498482850162000409565b91505092915050565b600081519050919050565b7f4e487b7100000000000000000000000000000000000000000000000000000000600052604160045260246000fd5b7f4e487b7100000000000000000000000000000000000000000000000000000000600052602260045260246000fd5b60006002820490506001821680620004d457607f821691505b602082108103620004ea57620004e96200048c565b5b50919050565b60008190508160005260206000209050919050565b60006020601f8301049050919050565b600082821b905092915050565b600060088302620005547fffffffffffffffffffffffffffffffffffffffffffffffffffffffffffffffff8262000515565b62000560868362000515565b95508019841693508086168417925050509392505050565b6000819050919050565b6000620005a36200059d6200059784620003e5565b62000578565b620003e5565b9050919050565b6000819050919050565b620005bf8362000582565b620005d7620005ce82620005aa565b84845462000522565b825550505050565b600090565b620005ee620005df565b620005fb818484620005b4565b505050565b5b81811015620006235762000617600082620005e4565b60018101905062000601565b5050565b601f82111562000672576200063c81620004f0565b620006478462000505565b8101602085101562000657578190505b6200066f620006668562000505565b83018262000600565b50505b505050565b600082821c905092915050565b6000620006976000198460080262000677565b1980831691505092915050565b6000620006b2838362000684565b9150826002028217905092915050565b620006cd8262000452565b67ffffffffffffffff811115620006e957620006e86200045d565b5b620006f58254620004bb565b6200070282828562000627565b600060209050601f8311600181146200073a576000841562000725578287015190505b620007318582620006a4565b865550620007a1565b601f1984166200074a86620004f0565b60005b8281101562000774578489015182556001820191506020850194506020810190506200074d565b8683101562000794578489015162000790601f89168262000684565b8355505b6001600288020188555050505b505050505050565b600073ffffffffffffffffffffffffffffffffffffffff82169050919050565b6000620007d682620007a9565b9050919050565b620007e881620007c9565b82525050565b6000602082019050620008056000830184620007dd565b92915050565b7f4e487b7100000000000000000000000000000000000000000000000000000000600052601160045260246000fd5b60006200084782620003e5565b91506200085483620003e5565b92508282019050808211156200086f576200086e6200080b565b5b92915050565b6200088081620003e5565b82525050565b60006060820190506200089d6000830186620007dd565b620008ac602083018562000875565b620008bb604083018462000875565b949350505050565b6000602082019050620008da600083018462000875565b92915050565b6117c880620008f06000396000f3fe6080604052600436106100f35760003560e01c80638c89a0ad1161008a578063dd62ed3e11610059578063dd62ed3e14610354578063e845204e14610391578063f14210a6146103ba578063f6326fb3146103e3576100f3565b80638c89a0ad1461029657806395d89b41146102c1578063a9059cbb146102ec578063bed0fb0414610329576100f3565b806323b872dd116100c657806323b872dd146101c8578063313ce56714610205578063549a1c731461023057806370a0823114610259576100f3565b806305ab421d146100f857806306fdde0314610135578063095ea7b31461016057806318160ddd1461019d575b600080fd5b34801561010457600080fd5b5061011f600480360381019061011a9190611046565b6103ed565b60405161012c91906110a1565b60405180910390f35b34801561014157600080fd5b5061014a6104df565b604051610157919061114c565b60405180910390f35b34801561016c57600080fd5b5061018760048036038101906101829190611046565b610571565b60405161019491906110a1565b60405180910390f35b3480156101a957600080fd5b506101b2610594565b6040516101bf919061117d565b60405180910390f35b3480156101d457600080fd5b506101ef60048036038101906101ea9190611198565b61059e565b6040516101fc91906110a1565b60405180910390f35b34801561021157600080fd5b5061021a6105cd565b6040516102279190611207565b60405180910390f35b34801561023c57600080fd5b5061025760048036038101906102529190611222565b6105d6565b005b34801561026557600080fd5b50610280600480360381019061027b919061124f565b6106e1565b60405161028d919061117d565b60405180910390f35b3480156102a257600080fd5b506102ab610729565b6040516102b8919061117d565b60405180910390f35b3480156102cd57600080fd5b506102d6610731565b6040516102e3919061114c565b60405180910390f35b3480156102f857600080fd5b50610313600480360381019061030e9190611046565b6107c3565b60405161032091906110a1565b60405180910390f35b34801561033557600080fd5b5061033e6107e6565b60405161034b919061117d565b60405180910390f35b34801561036057600080fd5b5061037b6004803603810190610376919061127c565b6107f6565b604051610388919061117d565b60405180910390f35b34801561039d57600080fd5b506103b860048036038101906103b39190611222565b61087d565b005b3480156103c657600080fd5b506103e160048036038101906103dc9190611222565b6108ce565b005b6103eb610a0d565b005b6000600560009054906101000a900473ffffffffffffffffffffffffffffffffffffffff1673ffffffffffffffffffffffffffffffffffffffff163373ffffffffffffffffffffffffffffffffffffffff161461047f576040517f08c379a00000000000000000000000000000000000000000000000000000000081526004016104769061132e565b60405180910390fd5b81610489306106e1565b10156104ca576040517f08c379a00000000000000000000000000000000000000000000000000000000081526004016104c1906113c0565b60405180910390fd5b6104d5308484610a0f565b6001905092915050565b6060600380546104ee9061140f565b80601f016020809104026020016040519081016040528092919081815260200182805461051a9061140f565b80156105675780601f1061053c57610100808354040283529160200191610567565b820191906000526020600020905b81548152906001019060200180831161054a57829003601f168201915b5050505050905090565b60008061057c610b03565b9050610589818585610b0b565b600191505092915050565b6000600254905090565b6000806105a9610b03565b90506105b6858285610b1d565b6105c1858585610a0f565b60019150509392505050565b60006012905090565b600560009054906101000a900473ffffffffffffffffffffffffffffffffffffffff1673ffffffffffffffffffffffffffffffffffffffff163373ffffffffffffffffffffffffffffffffffffffff1614610666576040517f08c379a000000000000000000000000000000000000000000000000000000000815260040161065d906114b2565b60405180910390fd5b80610670306106e1565b10156106b1576040517f08c379a00000000000000000000000000000000000000000000000000000000081526004016106a89061151e565b60405180910390fd5b6106de30600560009054906101000a900473ffffffffffffffffffffffffffffffffffffffff1683610a0f565b50565b60008060008373ffffffffffffffffffffffffffffffffffffffff1673ffffffffffffffffffffffffffffffffffffffff168152602001908152602001600020549050919050565b600047905090565b6060600480546107409061140f565b80601f016020809104026020016040519081016040528092919081815260200182805461076c9061140f565b80156107b95780601f1061078e576101008083540402835291602001916107b9565b820191906000526020600020905b81548152906001019060200180831161079c57829003601f168201915b5050505050905090565b6000806107ce610b03565b90506107db818585610a0f565b600191505092915050565b60006107f1306106e1565b905090565b6000600160008473ffffffffffffffffffffffffffffffffffffffff1673ffffffffffffffffffffffffffffffffffffffff16815260200190815260200160002060008373ffffffffffffffffffffffffffffffffffffffff1673ffffffffffffffffffffffffffffffffffffffff16815260200190815260200160002054905092915050565b600081116108c0576040517f08c379a00000000000000000000000000000000000000000000000000000000081526004016108b7906115b0565b60405180910390fd5b6108cb333083610a0f565b50565b600560009054906101000a900473ffffffffffffffffffffffffffffffffffffffff1673ffffffffffffffffffffffffffffffffffffffff163373ffffffffffffffffffffffffffffffffffffffff161461095e576040517f08c379a000000000000000000000000000000000000000000000000000000000815260040161095590611642565b60405180910390fd5b804710156109a1576040517f08c379a0000000000000000000000000000000000000000000000000000000008152600401610998906116ae565b60405180910390fd5b600560009054906101000a900473ffffffffffffffffffffffffffffffffffffffff1673ffffffffffffffffffffffffffffffffffffffff166108fc829081150290604051600060405180830381858888f19350505050158015610a09573d6000803e3d6000fd5b5050565b565b600073ffffffffffffffffffffffffffffffffffffffff168373ffffffffffffffffffffffffffffffffffffffff1603610a815760006040517f96c6fd1e000000000000000000000000000000000000000000000000000000008152600401610a7891906116dd565b60405180910390fd5b600073ffffffffffffffffffffffffffffffffffffffff168273ffffffffffffffffffffffffffffffffffffffff1603610af35760006040517fec442f05000000000000000000000000000000000000000000000000000000008152600401610aea91906116dd565b60405180910390fd5b610afe838383610bb1565b505050565b600033905090565b610b188383836001610dd6565b505050565b6000610b2984846107f6565b90507fffffffffffffffffffffffffffffffffffffffffffffffffffffffffffffffff8114610bab5781811015610b9b578281836040517ffb8f41b2000000000000000000000000000000000000000000000000000000008152600401610b92939291906116f8565b60405180910390fd5b610baa84848484036000610dd6565b5b50505050565b600073ffffffffffffffffffffffffffffffffffffffff168373ffffffffffffffffffffffffffffffffffffffff1603610c03578060026000828254610bf7919061175e565b92505081905550610cd6565b60008060008573ffffffffffffffffffffffffffffffffffffffff1673ffffffffffffffffffffffffffffffffffffffff16815260200190815260200160002054905081811015610c8f578381836040517fe450d38c000000000000000000000000000000000000000000000000000000008152600401610c86939291906116f8565b60405180910390fd5b8181036000808673ffffffffffffffffffffffffffffffffffffffff1673ffffffffffffffffffffffffffffffffffffffff16815260200190815260200160002081905550505b600073ffffffffffffffffffffffffffffffffffffffff168273ffffffffffffffffffffffffffffffffffffffff1603610d1f5780600260008282540392505081905550610d6c565b806000808473ffffffffffffffffffffffffffffffffffffffff1673ffffffffffffffffffffffffffffffffffffffff168152602001908152602001600020600082825401925050819055505b8173ffffffffffffffffffffffffffffffffffffffff168373ffffffffffffffffffffffffffffffffffffffff167fddf252ad1be2c89b69c2b068fc378daa952ba7f163c4a11628f55a4df523b3ef83604051610dc9919061117d565b60405180910390a3505050565b600073ffffffffffffffffffffffffffffffffffffffff168473ffffffffffffffffffffffffffffffffffffffff1603610e485760006040517fe602df05000000000000000000000000000000000000000000000000000000008152600401610e3f91906116dd565b60405180910390fd5b600073ffffffffffffffffffffffffffffffffffffffff168373ffffffffffffffffffffffffffffffffffffffff1603610eba5760006040517f94280d62000000000000000000000000000000000000000000000000000000008152600401610eb191906116dd565b60405180910390fd5b81600160008673ffffffffffffffffffffffffffffffffffffffff1673ffffffffffffffffffffffffffffffffffffffff16815260200190815260200160002060008573ffffffffffffffffffffffffffffffffffffffff1673ffffffffffffffffffffffffffffffffffffffff168152602001908152602001600020819055508015610fa7578273ffffffffffffffffffffffffffffffffffffffff168473ffffffffffffffffffffffffffffffffffffffff167f8c5be1e5ebec7d5bd14f71427d1e84f3dd0314c0f7b2291e5b200ac8c7c3b92584604051610f9e919061117d565b60405180910390a35b50505050565b600080fd5b600073ffffffffffffffffffffffffffffffffffffffff82169050919050565b6000610fdd82610fb2565b9050919050565b610fed81610fd2565b8114610ff857600080fd5b50565b60008135905061100a81610fe4565b92915050565b6000819050919050565b61102381611010565b811461102e57600080fd5b50565b6000813590506110408161101a565b92915050565b6000806040838503121561105d5761105c610fad565b5b600061106b85828601610ffb565b925050602061107c85828601611031565b9150509250929050565b60008115159050919050565b61109b81611086565b82525050565b60006020820190506110b66000830184611092565b92915050565b600081519050919050565b600082825260208201905092915050565b60005b838110156110f65780820151818401526020810190506110db565b60008484015250505050565b6000601f19601f8301169050919050565b600061111e826110bc565b61112881856110c7565b93506111388185602086016110d8565b61114181611102565b840191505092915050565b600060208201905081810360008301526111668184611113565b905092915050565b61117781611010565b82525050565b6000602082019050611192600083018461116e565b92915050565b6000806000606084860312156111b1576111b0610fad565b5b60006111bf86828701610ffb565b93505060206111d086828701610ffb565b92505060406111e186828701611031565b9150509250925092565b600060ff82169050919050565b611201816111eb565b82525050565b600060208201905061121c60008301846111f8565b92915050565b60006020828403121561123857611237610fad565b5b600061124684828501611031565b91505092915050565b60006020828403121561126557611264610fad565b5b600061127384828501610ffb565b91505092915050565b6000806040838503121561129357611292610fad565b5b60006112a185828601610ffb565b92505060206112b285828601610ffb565b9150509250929050565b7f4f6e6c79207468652063726561746f722063616e2073656e6420746f6b656e7360008201527f2e00000000000000000000000000000000000000000000000000000000000000602082015250565b60006113186021836110c7565b9150611323826112bc565b604082019050919050565b600060208201905081810360008301526113478161130b565b9050919050565b7f496e73756666696369656e742062616c616e636520696e2074686520636f6e7460008201527f726163742e000000000000000000000000000000000000000000000000000000602082015250565b60006113aa6025836110c7565b91506113b58261134e565b604082019050919050565b600060208201905081810360008301526113d98161139d565b9050919050565b7f4e487b7100000000000000000000000000000000000000000000000000000000600052602260045260246000fd5b6000600282049050600182168061142757607f821691505b60208210810361143a576114396113e0565b5b50919050565b7f4f6e6c79207468652063726561746f722063616e20776974686472617720746f60008201527f6b656e732e000000000000000000000000000000000000000000000000000000602082015250565b600061149c6025836110c7565b91506114a782611440565b604082019050919050565b600060208201905081810360008301526114cb8161148f565b9050919050565b7f496e73756666696369656e74204c44532062616c616e63652e00000000000000600082015250565b60006115086019836110c7565b9150611513826114d2565b602082019050919050565b60006020820190508181036000830152611537816114fb565b9050919050565b7f416d6f756e74206d7573742062652067726561746572207468616e207a65726f60008201527f2e00000000000000000000000000000000000000000000000000000000000000602082015250565b600061159a6021836110c7565b91506115a58261153e565b604082019050919050565b600060208201905081810360008301526115c98161158d565b9050919050565b7f4f6e6c79207468652063726561746f722063616e20776974686472617720455460008201527f482e000000000000000000000000000000000000000000000000000000000000602082015250565b600061162c6022836110c7565b9150611637826115d0565b604082019050919050565b6000602082019050818103600083015261165b8161161f565b9050919050565b7f496e73756666696369656e74204554482062616c616e63652e00000000000000600082015250565b60006116986019836110c7565b91506116a382611662565b602082019050919050565b600060208201905081810360008301526116c78161168b565b9050919050565b6116d781610fd2565b82525050565b60006020820190506116f260008301846116ce565b92915050565b600060608201905061170d60008301866116ce565b61171a602083018561116e565b611727604083018461116e565b949350505050565b7f4e487b7100000000000000000000000000000000000000000000000000000000600052601160045260246000fd5b600061176982611010565b915061177483611010565b925082820190508082111561178c5761178b61172f565b5b9291505056fea264697066735822122096ca306bedc8107d0888b0cc97e57a22a0e1dd61400c9abc2bdad5c1484c3fbe64736f6c63430008180033",
  "linkReferences": {},
  "deployedLinkReferences": {}
}