{
    "_format": "hh-sol-artifact-1",
    "contractName": "LesdarusToken",
    "sourceName": "contracts/LesdarusToken.sol",
    "abi": [
        {
            "inputs": [
                {
                    "internalType": "uint256",
                    "name": "initialSupply",
                    "type": "uint256"
                }
            ],
            "stateMutability": "nonpayable",
            "type": "constructor"
        },
        {
            "inputs": [
                {
                    "internalType": "address",
                    "name": "spender",
                    "type": "address"
                },
                {
                    "internalType": "uint256",
                    "name": "allowance",
                    "type": "uint256"
                },
                {
                    "internalType": "uint256",
                    "name": "needed",
                    "type": "uint256"
                }
            ],
            "name": "ERC20InsufficientAllowance",
            "type": "error"
        },
        {
            "inputs": [
                {
                    "internalType": "address",
                    "name": "sender",
                    "type": "address"
                },
                {
                    "internalType": "uint256",
                    "name": "balance",
                    "type": "uint256"
                },
                {
                    "internalType": "uint256",
                    "name": "needed",
                    "type": "uint256"
                }
            ],
            "name": "ERC20InsufficientBalance",
            "type": "error"
        },
        {
            "inputs": [
                {
                    "internalType": "address",
                    "name": "approver",
                    "type": "address"
                }
            ],
            "name": "ERC20InvalidApprover",
            "type": "error"
        },
        {
            "inputs": [
                {
                    "internalType": "address",
                    "name": "receiver",
                    "type": "address"
                }
            ],
            "name": "ERC20InvalidReceiver",
            "type": "error"
        },
        {
            "inputs": [
                {
                    "internalType": "address",
                    "name": "sender",
                    "type": "address"
                }
            ],
            "name": "ERC20InvalidSender",
            "type": "error"
        },
        {
            "inputs": [
                {
                    "internalType": "address",
                    "name": "spender",
                    "type": "address"
                }
            ],
            "name": "ERC20InvalidSpender",
            "type": "error"
        },
        {
            "anonymous": false,
            "inputs": [
                {
                    "indexed": true,
                    "internalType": "address",
                    "name": "owner",
                    "type": "address"
                },
                {
                    "indexed": true,
                    "internalType": "address",
                    "name": "spender",
                    "type": "address"
                },
                {
                    "indexed": false,
                    "internalType": "uint256",
                    "name": "value",
                    "type": "uint256"
                }
            ],
            "name": "Approval",
            "type": "event"
        },
        {
            "anonymous": false,
            "inputs": [
                {
                    "indexed": true,
                    "internalType": "address",
                    "name": "from",
                    "type": "address"
                },
                {
                    "indexed": true,
                    "internalType": "address",
                    "name": "to",
                    "type": "address"
                },
                {
                    "indexed": false,
                    "internalType": "uint256",
                    "name": "value",
                    "type": "uint256"
                }
            ],
            "name": "Transfer",
            "type": "event"
        },
        {
            "inputs": [
                {
                    "internalType": "address",
                    "name": "owner",
                    "type": "address"
                },
                {
                    "internalType": "address",
                    "name": "spender",
                    "type": "address"
                }
            ],
            "name": "allowance",
            "outputs": [
                {
                    "internalType": "uint256",
                    "name": "",
                    "type": "uint256"
                }
            ],
            "stateMutability": "view",
            "type": "function"
        },
        {
            "inputs": [
                {
                    "internalType": "address",
                    "name": "spender",
                    "type": "address"
                },
                {
                    "internalType": "uint256",
                    "name": "value",
                    "type": "uint256"
                }
            ],
            "name": "approve",
            "outputs": [
                {
                    "internalType": "bool",
                    "name": "",
                    "type": "bool"
                }
            ],
            "stateMutability": "nonpayable",
            "type": "function"
        },
        {
            "inputs": [
                {
                    "internalType": "address",
                    "name": "account",
                    "type": "address"
                }
            ],
            "name": "balanceOf",
            "outputs": [
                {
                    "internalType": "uint256",
                    "name": "",
                    "type": "uint256"
                }
            ],
            "stateMutability": "view",
            "type": "function"
        },
        {
            "inputs": [],
            "name": "decimals",
            "outputs": [
                {
                    "internalType": "uint8",
                    "name": "",
                    "type": "uint8"
                }
            ],
            "stateMutability": "view",
            "type": "function"
        },
        {
            "inputs": [],
            "name": "deposit",
            "outputs": [],
            "stateMutability": "payable",
            "type": "function"
        },
        {
            "inputs": [
                {
                    "internalType": "address",
                    "name": "userAddress",
                    "type": "address"
                },
                {
                    "internalType": "uint256",
                    "name": "amount",
                    "type": "uint256"
                },
                {
                    "internalType": "bytes32",
                    "name": "r",
                    "type": "bytes32"
                },
                {
                    "internalType": "bytes32",
                    "name": "s",
                    "type": "bytes32"
                },
                {
                    "internalType": "uint8",
                    "name": "v",
                    "type": "uint8"
                }
            ],
            "name": "executeMetaTransaction",
            "outputs": [
                {
                    "internalType": "bool",
                    "name": "",
                    "type": "bool"
                }
            ],
            "stateMutability": "nonpayable",
            "type": "function"
        },
        {
            "inputs": [],
            "name": "getContractETHBalance",
            "outputs": [
                {
                    "internalType": "uint256",
                    "name": "",
                    "type": "uint256"
                }
            ],
            "stateMutability": "view",
            "type": "function"
        },
        {
            "inputs": [],
            "name": "getContractLDSBalance",
            "outputs": [
                {
                    "internalType": "uint256",
                    "name": "",
                    "type": "uint256"
                }
            ],
            "stateMutability": "view",
            "type": "function"
        },
        {
            "inputs": [
                {
                    "internalType": "address",
                    "name": "userAddress",
                    "type": "address"
                }
            ],
            "name": "getNonce",
            "outputs": [
                {
                    "internalType": "uint256",
                    "name": "",
                    "type": "uint256"
                }
            ],
            "stateMutability": "view",
            "type": "function"
        },
        {
            "inputs": [],
            "name": "name",
            "outputs": [
                {
                    "internalType": "string",
                    "name": "",
                    "type": "string"
                }
            ],
            "stateMutability": "view",
            "type": "function"
        },
        {
            "inputs": [
                {
                    "internalType": "address",
                    "name": "recipient",
                    "type": "address"
                },
                {
                    "internalType": "uint256",
                    "name": "amount",
                    "type": "uint256"
                }
            ],
            "name": "sendTokens",
            "outputs": [
                {
                    "internalType": "bool",
                    "name": "",
                    "type": "bool"
                }
            ],
            "stateMutability": "nonpayable",
            "type": "function"
        },
        {
            "inputs": [
                {
                    "internalType": "address",
                    "name": "relayer",
                    "type": "address"
                }
            ],
            "name": "setRelayer",
            "outputs": [],
            "stateMutability": "nonpayable",
            "type": "function"
        },
        {
            "inputs": [],
            "name": "symbol",
            "outputs": [
                {
                    "internalType": "string",
                    "name": "",
                    "type": "string"
                }
            ],
            "stateMutability": "view",
            "type": "function"
        },
        {
            "inputs": [],
            "name": "totalSupply",
            "outputs": [
                {
                    "internalType": "uint256",
                    "name": "",
                    "type": "uint256"
                }
            ],
            "stateMutability": "view",
            "type": "function"
        },
        {
            "inputs": [
                {
                    "internalType": "address",
                    "name": "to",
                    "type": "address"
                },
                {
                    "internalType": "uint256",
                    "name": "value",
                    "type": "uint256"
                }
            ],
            "name": "transfer",
            "outputs": [
                {
                    "internalType": "bool",
                    "name": "",
                    "type": "bool"
                }
            ],
            "stateMutability": "nonpayable",
            "type": "function"
        },
        {
            "inputs": [
                {
                    "internalType": "address",
                    "name": "from",
                    "type": "address"
                },
                {
                    "internalType": "address",
                    "name": "to",
                    "type": "address"
                },
                {
                    "internalType": "uint256",
                    "name": "value",
                    "type": "uint256"
                }
            ],
            "name": "transferFrom",
            "outputs": [
                {
                    "internalType": "bool",
                    "name": "",
                    "type": "bool"
                }
            ],
            "stateMutability": "nonpayable",
            "type": "function"
        }
    ],
    "bytecode": "0x60806040523480156200001157600080fd5b50604051620024ed380380620024ed833981810160405281019062000037919062000461565b6040518060400160405280600881526020017f4c657364617275730000000000000000000000000000000000000000000000008152506040518060400160405280600381526020017f4c445300000000000000000000000000000000000000000000000000000000008152508160039081620000b4919062000703565b508060049081620000c6919062000703565b50505033600560006101000a81548173ffffffffffffffffffffffffffffffffffffffff021916908373ffffffffffffffffffffffffffffffffffffffff16021790555033600660006101000a81548173ffffffffffffffffffffffffffffffffffffffff021916908373ffffffffffffffffffffffffffffffffffffffff1602179055506200015d30826200016460201b60201c565b5062000921565b600073ffffffffffffffffffffffffffffffffffffffff168273ffffffffffffffffffffffffffffffffffffffff1603620001d95760006040517fec442f05000000000000000000000000000000000000000000000000000000008152600401620001d091906200082f565b60405180910390fd5b620001ed60008383620001f160201b60201c565b5050565b600073ffffffffffffffffffffffffffffffffffffffff168373ffffffffffffffffffffffffffffffffffffffff1603620002475780600260008282546200023a91906200087b565b925050819055506200031d565b60008060008573ffffffffffffffffffffffffffffffffffffffff1673ffffffffffffffffffffffffffffffffffffffff16815260200190815260200160002054905081811015620002d6578381836040517fe450d38c000000000000000000000000000000000000000000000000000000008152600401620002cd93929190620008c7565b60405180910390fd5b8181036000808673ffffffffffffffffffffffffffffffffffffffff1673ffffffffffffffffffffffffffffffffffffffff16815260200190815260200160002081905550505b600073ffffffffffffffffffffffffffffffffffffffff168273ffffffffffffffffffffffffffffffffffffffff1603620003685780600260008282540392505081905550620003b5565b806000808473ffffffffffffffffffffffffffffffffffffffff1673ffffffffffffffffffffffffffffffffffffffff168152602001908152602001600020600082825401925050819055505b8173ffffffffffffffffffffffffffffffffffffffff168373ffffffffffffffffffffffffffffffffffffffff167fddf252ad1be2c89b69c2b068fc378daa952ba7f163c4a11628f55a4df523b3ef8360405162000414919062000904565b60405180910390a3505050565b600080fd5b6000819050919050565b6200043b8162000426565b81146200044757600080fd5b50565b6000815190506200045b8162000430565b92915050565b6000602082840312156200047a576200047962000421565b5b60006200048a848285016200044a565b91505092915050565b600081519050919050565b7f4e487b7100000000000000000000000000000000000000000000000000000000600052604160045260246000fd5b7f4e487b7100000000000000000000000000000000000000000000000000000000600052602260045260246000fd5b600060028204905060018216806200051557607f821691505b6020821081036200052b576200052a620004cd565b5b50919050565b60008190508160005260206000209050919050565b60006020601f8301049050919050565b600082821b905092915050565b600060088302620005957fffffffffffffffffffffffffffffffffffffffffffffffffffffffffffffffff8262000556565b620005a1868362000556565b95508019841693508086168417925050509392505050565b6000819050919050565b6000620005e4620005de620005d88462000426565b620005b9565b62000426565b9050919050565b6000819050919050565b6200060083620005c3565b620006186200060f82620005eb565b84845462000563565b825550505050565b600090565b6200062f62000620565b6200063c818484620005f5565b505050565b5b8181101562000664576200065860008262000625565b60018101905062000642565b5050565b601f821115620006b3576200067d8162000531565b620006888462000546565b8101602085101562000698578190505b620006b0620006a78562000546565b83018262000641565b50505b505050565b600082821c905092915050565b6000620006d860001984600802620006b8565b1980831691505092915050565b6000620006f38383620006c5565b9150826002028217905092915050565b6200070e8262000493565b67ffffffffffffffff8111156200072a57620007296200049e565b5b620007368254620004fc565b6200074382828562000668565b600060209050601f8311600181146200077b576000841562000766578287015190505b620007728582620006e5565b865550620007e2565b601f1984166200078b8662000531565b60005b82811015620007b5578489015182556001820191506020850194506020810190506200078e565b86831015620007d55784890151620007d1601f891682620006c5565b8355505b6001600288020188555050505b505050505050565b600073ffffffffffffffffffffffffffffffffffffffff82169050919050565b60006200081782620007ea565b9050919050565b62000829816200080a565b82525050565b60006020820190506200084660008301846200081e565b92915050565b7f4e487b7100000000000000000000000000000000000000000000000000000000600052601160045260246000fd5b6000620008888262000426565b9150620008958362000426565b9250828201905080821115620008b057620008af6200084c565b5b92915050565b620008c18162000426565b82525050565b6000606082019050620008de60008301866200081e565b620008ed6020830185620008b6565b620008fc6040830184620008b6565b949350505050565b60006020820190506200091b6000830184620008b6565b92915050565b611bbc80620009316000396000f3fe6080604052600436106100f35760003560e01c806370a082311161008a578063bed0fb0411610059578063bed0fb0414610366578063d0e30db014610391578063dd62ed3e1461039b578063f633b1a8146103d8576100f3565b806370a08231146102965780638c89a0ad146102d357806395d89b41146102fe578063a9059cbb14610329576100f3565b806323b872dd116100c657806323b872dd146101c85780632d0335ab14610205578063313ce567146102425780636548e9bc1461026d576100f3565b806305ab421d146100f857806306fdde0314610135578063095ea7b31461016057806318160ddd1461019d575b600080fd5b34801561010457600080fd5b5061011f600480360381019061011a9190611216565b610415565b60405161012c9190611271565b60405180910390f35b34801561014157600080fd5b5061014a6104b9565b604051610157919061131c565b60405180910390f35b34801561016c57600080fd5b5061018760048036038101906101829190611216565b61054b565b6040516101949190611271565b60405180910390f35b3480156101a957600080fd5b506101b261056e565b6040516101bf919061134d565b60405180910390f35b3480156101d457600080fd5b506101ef60048036038101906101ea9190611368565b610578565b6040516101fc9190611271565b60405180910390f35b34801561021157600080fd5b5061022c600480360381019061022791906113bb565b6105a7565b604051610239919061134d565b60405180910390f35b34801561024e57600080fd5b506102576105f0565b6040516102649190611404565b60405180910390f35b34801561027957600080fd5b50610294600480360381019061028f91906113bb565b6105f9565b005b3480156102a257600080fd5b506102bd60048036038101906102b891906113bb565b6106cd565b6040516102ca919061134d565b60405180910390f35b3480156102df57600080fd5b506102e8610715565b6040516102f5919061134d565b60405180910390f35b34801561030a57600080fd5b506103136107ad565b604051610320919061131c565b60405180910390f35b34801561033557600080fd5b50610350600480360381019061034b9190611216565b61083f565b60405161035d9190611271565b60405180910390f35b34801561037257600080fd5b5061037b610862565b604051610388919061134d565b60405180910390f35b610399610872565b005b3480156103a757600080fd5b506103c260048036038101906103bd919061141f565b610904565b6040516103cf919061134d565b60405180910390f35b3480156103e457600080fd5b506103ff60048036038101906103fa91906114c1565b61098b565b60405161040c9190611271565b60405180910390f35b6000600560009054906101000a900473ffffffffffffffffffffffffffffffffffffffff1673ffffffffffffffffffffffffffffffffffffffff163373ffffffffffffffffffffffffffffffffffffffff16146104a7576040517f08c379a000000000000000000000000000000000000000000000000000000000815260040161049e906115ae565b60405180910390fd5b6104b1838361083f565b905092915050565b6060600380546104c8906115fd565b80601f01602080910402602001604051908101604052809291908181526020018280546104f4906115fd565b80156105415780601f1061051657610100808354040283529160200191610541565b820191906000526020600020905b81548152906001019060200180831161052457829003601f168201915b5050505050905090565b600080610556610bdf565b9050610563818585610be7565b600191505092915050565b6000600254905090565b600080610583610bdf565b9050610590858285610bf9565b61059b858585610c8d565b60019150509392505050565b6000600760008373ffffffffffffffffffffffffffffffffffffffff1673ffffffffffffffffffffffffffffffffffffffff168152602001908152602001600020549050919050565b60006012905090565b600560009054906101000a900473ffffffffffffffffffffffffffffffffffffffff1673ffffffffffffffffffffffffffffffffffffffff163373ffffffffffffffffffffffffffffffffffffffff1614610689576040517f08c379a0000000000000000000000000000000000000000000000000000000008152600401610680906116a0565b60405180910390fd5b80600660006101000a81548173ffffffffffffffffffffffffffffffffffffffff021916908373ffffffffffffffffffffffffffffffffffffffff16021790555050565b60008060008373ffffffffffffffffffffffffffffffffffffffff1673ffffffffffffffffffffffffffffffffffffffff168152602001908152602001600020549050919050565b6000600560009054906101000a900473ffffffffffffffffffffffffffffffffffffffff1673ffffffffffffffffffffffffffffffffffffffff163373ffffffffffffffffffffffffffffffffffffffff16146107a7576040517f08c379a000000000000000000000000000000000000000000000000000000000815260040161079e90611732565b60405180910390fd5b47905090565b6060600480546107bc906115fd565b80601f01602080910402602001604051908101604052809291908181526020018280546107e8906115fd565b80156108355780601f1061080a57610100808354040283529160200191610835565b820191906000526020600020905b81548152906001019060200180831161081857829003601f168201915b5050505050905090565b60008061084a610bdf565b9050610857818585610c8d565b600191505092915050565b600061086d306106cd565b905090565b600560009054906101000a900473ffffffffffffffffffffffffffffffffffffffff1673ffffffffffffffffffffffffffffffffffffffff163373ffffffffffffffffffffffffffffffffffffffff1614610902576040517f08c379a00000000000000000000000000000000000000000000000000000000081526004016108f9906117c4565b60405180910390fd5b565b6000600160008473ffffffffffffffffffffffffffffffffffffffff1673ffffffffffffffffffffffffffffffffffffffff16815260200190815260200160002060008373ffffffffffffffffffffffffffffffffffffffff1673ffffffffffffffffffffffffffffffffffffffff16815260200190815260200160002054905092915050565b6000600660009054906101000a900473ffffffffffffffffffffffffffffffffffffffff1673ffffffffffffffffffffffffffffffffffffffff163373ffffffffffffffffffffffffffffffffffffffff1614610a1d576040517f08c379a0000000000000000000000000000000000000000000000000000000008152600401610a1490611856565b60405180910390fd5b60008686600760008a73ffffffffffffffffffffffffffffffffffffffff1673ffffffffffffffffffffffffffffffffffffffff16815260200190815260200160002054604051602001610a73939291906118df565b604051602081830303815290604052805190602001209050600081604051602001610a9e9190611994565b6040516020818303038152906040528051906020012090508773ffffffffffffffffffffffffffffffffffffffff1660018286898960405160008152602001604052604051610af094939291906119c9565b6020604051602081039080840390855afa158015610b12573d6000803e3d6000fd5b5050506020604051035173ffffffffffffffffffffffffffffffffffffffff1614610b72576040517f08c379a0000000000000000000000000000000000000000000000000000000008152600401610b6990611a5a565b60405180910390fd5b600760008973ffffffffffffffffffffffffffffffffffffffff1673ffffffffffffffffffffffffffffffffffffffff1681526020019081526020016000206000815480929190610bc290611aa9565b9190505550610bd2883089610578565b9250505095945050505050565b600033905090565b610bf48383836001610d81565b505050565b6000610c058484610904565b90507fffffffffffffffffffffffffffffffffffffffffffffffffffffffffffffffff8114610c875781811015610c77578281836040517ffb8f41b2000000000000000000000000000000000000000000000000000000008152600401610c6e93929190611b00565b60405180910390fd5b610c8684848484036000610d81565b5b50505050565b600073ffffffffffffffffffffffffffffffffffffffff168373ffffffffffffffffffffffffffffffffffffffff1603610cff5760006040517f96c6fd1e000000000000000000000000000000000000000000000000000000008152600401610cf69190611b37565b60405180910390fd5b600073ffffffffffffffffffffffffffffffffffffffff168273ffffffffffffffffffffffffffffffffffffffff1603610d715760006040517fec442f05000000000000000000000000000000000000000000000000000000008152600401610d689190611b37565b60405180910390fd5b610d7c838383610f58565b505050565b600073ffffffffffffffffffffffffffffffffffffffff168473ffffffffffffffffffffffffffffffffffffffff1603610df35760006040517fe602df05000000000000000000000000000000000000000000000000000000008152600401610dea9190611b37565b60405180910390fd5b600073ffffffffffffffffffffffffffffffffffffffff168373ffffffffffffffffffffffffffffffffffffffff1603610e655760006040517f94280d62000000000000000000000000000000000000000000000000000000008152600401610e5c9190611b37565b60405180910390fd5b81600160008673ffffffffffffffffffffffffffffffffffffffff1673ffffffffffffffffffffffffffffffffffffffff16815260200190815260200160002060008573ffffffffffffffffffffffffffffffffffffffff1673ffffffffffffffffffffffffffffffffffffffff168152602001908152602001600020819055508015610f52578273ffffffffffffffffffffffffffffffffffffffff168473ffffffffffffffffffffffffffffffffffffffff167f8c5be1e5ebec7d5bd14f71427d1e84f3dd0314c0f7b2291e5b200ac8c7c3b92584604051610f49919061134d565b60405180910390a35b50505050565b600073ffffffffffffffffffffffffffffffffffffffff168373ffffffffffffffffffffffffffffffffffffffff1603610faa578060026000828254610f9e9190611b52565b9250508190555061107d565b60008060008573ffffffffffffffffffffffffffffffffffffffff1673ffffffffffffffffffffffffffffffffffffffff16815260200190815260200160002054905081811015611036578381836040517fe450d38c00000000000000000000000000000000000000000000000000000000815260040161102d93929190611b00565b60405180910390fd5b8181036000808673ffffffffffffffffffffffffffffffffffffffff1673ffffffffffffffffffffffffffffffffffffffff16815260200190815260200160002081905550505b600073ffffffffffffffffffffffffffffffffffffffff168273ffffffffffffffffffffffffffffffffffffffff16036110c65780600260008282540392505081905550611113565b806000808473ffffffffffffffffffffffffffffffffffffffff1673ffffffffffffffffffffffffffffffffffffffff168152602001908152602001600020600082825401925050819055505b8173ffffffffffffffffffffffffffffffffffffffff168373ffffffffffffffffffffffffffffffffffffffff167fddf252ad1be2c89b69c2b068fc378daa952ba7f163c4a11628f55a4df523b3ef83604051611170919061134d565b60405180910390a3505050565b600080fd5b600073ffffffffffffffffffffffffffffffffffffffff82169050919050565b60006111ad82611182565b9050919050565b6111bd816111a2565b81146111c857600080fd5b50565b6000813590506111da816111b4565b92915050565b6000819050919050565b6111f3816111e0565b81146111fe57600080fd5b50565b600081359050611210816111ea565b92915050565b6000806040838503121561122d5761122c61117d565b5b600061123b858286016111cb565b925050602061124c85828601611201565b9150509250929050565b60008115159050919050565b61126b81611256565b82525050565b60006020820190506112866000830184611262565b92915050565b600081519050919050565b600082825260208201905092915050565b60005b838110156112c65780820151818401526020810190506112ab565b60008484015250505050565b6000601f19601f8301169050919050565b60006112ee8261128c565b6112f88185611297565b93506113088185602086016112a8565b611311816112d2565b840191505092915050565b6000602082019050818103600083015261133681846112e3565b905092915050565b611347816111e0565b82525050565b6000602082019050611362600083018461133e565b92915050565b6000806000606084860312156113815761138061117d565b5b600061138f868287016111cb565b93505060206113a0868287016111cb565b92505060406113b186828701611201565b9150509250925092565b6000602082840312156113d1576113d061117d565b5b60006113df848285016111cb565b91505092915050565b600060ff82169050919050565b6113fe816113e8565b82525050565b600060208201905061141960008301846113f5565b92915050565b600080604083850312156114365761143561117d565b5b6000611444858286016111cb565b9250506020611455858286016111cb565b9150509250929050565b6000819050919050565b6114728161145f565b811461147d57600080fd5b50565b60008135905061148f81611469565b92915050565b61149e816113e8565b81146114a957600080fd5b50565b6000813590506114bb81611495565b92915050565b600080600080600060a086880312156114dd576114dc61117d565b5b60006114eb888289016111cb565b95505060206114fc88828901611201565b945050604061150d88828901611480565b935050606061151e88828901611480565b925050608061152f888289016114ac565b9150509295509295909350565b7f4f6e6c79207468652063726561746f722063616e2073656e6420746f6b656e7360008201527f2e00000000000000000000000000000000000000000000000000000000000000602082015250565b6000611598602183611297565b91506115a38261153c565b604082019050919050565b600060208201905081810360008301526115c78161158b565b9050919050565b7f4e487b7100000000000000000000000000000000000000000000000000000000600052602260045260246000fd5b6000600282049050600182168061161557607f821691505b602082108103611628576116276115ce565b5b50919050565b7f4f6e6c79207468652063726561746f722063616e20736574207468652072656c60008201527f617965722e000000000000000000000000000000000000000000000000000000602082015250565b600061168a602583611297565b91506116958261162e565b604082019050919050565b600060208201905081810360008301526116b98161167d565b9050919050565b7f4f6e6c79207468652063726561746f722063616e2067657420636f6e7472616360008201527f74204554482062616c616e63652e000000000000000000000000000000000000602082015250565b600061171c602e83611297565b9150611727826116c0565b604082019050919050565b6000602082019050818103600083015261174b8161170f565b9050919050565b7f4f6e6c79207468652063726561746f722063616e206465706f7369742045544860008201527f2e00000000000000000000000000000000000000000000000000000000000000602082015250565b60006117ae602183611297565b91506117b982611752565b604082019050919050565b600060208201905081810360008301526117dd816117a1565b9050919050565b7f4f6e6c79207468652072656c617965722063616e2065786563757465206d657460008201527f612d7472616e73616374696f6e732e0000000000000000000000000000000000602082015250565b6000611840602f83611297565b915061184b826117e4565b604082019050919050565b6000602082019050818103600083015261186f81611833565b9050919050565b60008160601b9050919050565b600061188e82611876565b9050919050565b60006118a082611883565b9050919050565b6118b86118b3826111a2565b611895565b82525050565b6000819050919050565b6118d96118d4826111e0565b6118be565b82525050565b60006118eb82866118a7565b6014820191506118fb82856118c8565b60208201915061190b82846118c8565b602082019150819050949350505050565b600081905092915050565b7f19457468657265756d205369676e6564204d6573736167653a0a333200000000600082015250565b600061195d601c8361191c565b915061196882611927565b601c82019050919050565b6000819050919050565b61198e6119898261145f565b611973565b82525050565b600061199f82611950565b91506119ab828461197d565b60208201915081905092915050565b6119c38161145f565b82525050565b60006080820190506119de60008301876119ba565b6119eb60208301866113f5565b6119f860408301856119ba565b611a0560608301846119ba565b95945050505050565b7f496e76616c6964207369676e61747572652e0000000000000000000000000000600082015250565b6000611a44601283611297565b9150611a4f82611a0e565b602082019050919050565b60006020820190508181036000830152611a7381611a37565b9050919050565b7f4e487b7100000000000000000000000000000000000000000000000000000000600052601160045260246000fd5b6000611ab4826111e0565b91507fffffffffffffffffffffffffffffffffffffffffffffffffffffffffffffffff8203611ae657611ae5611a7a565b5b600182019050919050565b611afa816111a2565b82525050565b6000606082019050611b156000830186611af1565b611b22602083018561133e565b611b2f604083018461133e565b949350505050565b6000602082019050611b4c6000830184611af1565b92915050565b6000611b5d826111e0565b9150611b68836111e0565b9250828201905080821115611b8057611b7f611a7a565b5b9291505056fea26469706673582212202559eb4572ccacfe554985b1e31ebcf72f358ca91d3d6d5d537eccb85dba9b2964736f6c63430008180033",
    "linkReferences": {},
    "deployedLinkReferences": {}
}